:020000040800F2
:1000000000000220E1050008DD05000879840008F1
:10001000DD050008DD050008DD0500080000000022
:10002000000000000000000000000000DD050008E6
:10003000DD05000800000000DD050008FD83000864
:10004000DD050008DD050008DD050008DD05000808
:10005000DD050008DD050008DD050008DD050008F8
:10006000DD050008DD050008DD0500085970000801
:1000700065700008BD5D0008717000087D700008A3
:10008000C57E000889650008DD050008DD0500085B
:10009000DD050008DD050008DD050008DD050008B8
:1000A000DD050008DD050008DD050008DD050008A8
:1000B000B1360108BD360108C9360108BD65000822
:1000C000DD050008C9650008DD050008212F0108CD
:1000D0002D2F0108F97C0008257D0008597D0008B6
:1000E000DD050008DD05000800000000DD05000852
:1000F000DD050008DD050008DD050008DD05000858
:10010000DD050008DD050008D5360108392F010896
:100110008D7D0008C17D0008DD050008DD050008B3
:10012000DD050008DD0500085D2F0108912F01089D
:10013000F97E0008DD050008DD050008DD05000882
:1001400000000000000000000000000000000000AF
:10015000DD050008DD050008DD050008F57D000867
:10016000D5650008DD0500080D840008318400080D
:10017000DD05000855840008DD050008DD050008E0
:10018000DD050008DD050008297E00085D7E000809
:10019000452F0108512F0108DD050008DD05000885
:1001A000DD050008DD050008DD050008DD050008A7
:1001B000796D0008DD050008DD050008DD05000893
:1001C000DD050008DD050008DD050008DD05000887
:1001D000DD050008DD050008DD050008DD05000877
:1001E000DD050008DD050008DD050008DD05000867
:1001F000DD050008DD050008DD050008DD05000857
:10020000DD050008DD050008DD050008DD05000846
:10021000DD050008DD050008DD050008DD05000836
:10022000DD050008DD050008DD0500080000000010
:10023000DD050008DD05000800000000DD05000800
:10024000DD050008DD050008DD050008DD05000806
:10025000DD050008DD050008DD050008DD050008F6
:10026000DD050008DD050008DD050008DD050008E6
:10027000DD050008DD050008917E00080000000093
:10028000DD050008DD050008DD05000800000000B0
:0802900000000000DD0500087C
:1002980010B5054C237833B9044B13B10448AFF3B8
:1002A80000800123237010BDE0030024000000003B
:1002B800B850010808B5034B1BB103490348AFF315
:1002C800008008BD00000000E4030024B8500108C5
:1002D80053B94AB9002908BF00281CBF4FF0FF31A5
:1002E8004FF0FF3000F074B9ADF1080C6DE904CEA1
:1002F80000F006F8DDF804E0DDE9022304B07047F9
:100308002DE9F047089D04468E46002B4DD18A42C0
:10031800944669D9B2FA82F252B101FA02F3C2F1F3
:10032800200120FA01F10CFA02FC41EA030E944084
:100338004FEA1C48210CBEFBF8F61FFA8CF708FBA5
:1003480016E341EA034306FB07F199420AD91CEB7D
:10035800030306F1FF3080F01F81994240F21C81AF
:10036800023E63445B1AA4B2B3FBF8F008FB1033F7
:1003780044EA034400FB07F7A7420AD91CEB04042C
:1003880000F1FF3380F00A81A74240F207816444FC
:10039800023840EA0640E41B00261DB1D440002381
:1003A800C5E900433146BDE8F0878B4209D9002DE5
:1003B80000F0EF800026C5E9000130463146BDE86F
:1003C800F087B3FA83F6002E4AD18B4202D38242D9
:1003D80000F2F980841A61EB030301209E46002D88
:1003E800E0D0C5E9004EDDE702B9FFDEB2FA82F2DD
:1003F800002A40F09280A1EB0C014FEA1C471FFA3B
:100408008CFE0126200CB1FBF7F307FB131140EA21
:1004180001410EFB03F0884208D91CEB010103F1EE
:10042800FF3802D2884200F2CB804346091AA4B2B0
:10043800B1FBF7F007FB101144EA01440EFB00FE84
:10044800A64508D91CEB040400F1FF3102D2A645E9
:1004580000F2BB800846A4EB0E0440EA03409CE788
:10046800C6F12007B34022FA07FC4CEA030C20FA35
:1004780007F401FA06F31C43F9404FEA1C4900FA55
:1004880006F3B1FBF9F8200C1FFA8CFE09FB1811D2
:1004980040EA014108FB0EF0884202FA06F20BD945
:1004A8001CEB010108F1FF3A80F08880884240F295
:1004B8008580A8F102086144091AA4B2B1FBF9F0D9
:1004C80009FB101144EA014100FB0EFE8E4508D9D4
:1004D8001CEB010100F1FF346CD28E456AD9023859
:1004E800614440EA0840A0FB0294A1EB0E01A1423E
:1004F800C846A64656D353D05DB1B3EB080261EBAC
:100508000E0101FA07F722FA06F3F1401F43C5E985
:10051800007100263146BDE8F087C2F12003D840BB
:100528000CFA02FC21FA03F3914001434FEA1C47FD
:100538001FFA8CFEB3FBF7F007FB10360B0C43EAEF
:10054800064300FB0EF69E4204FA02F408D91CEB9F
:10055800030300F1FF382FD29E422DD9023863449D
:100568009B1B89B2B3FBF7F607FB163341EA03413D
:1005780006FB0EF38B4208D91CEB010106F1FF388C
:1005880016D28B4214D9023E6144C91A46EA004683
:1005980038E72E46284605E70646E3E61846F8E615
:1005A8004B45A9D2B9EB020864EB0C0E0138A3E75E
:1005B8004646EAE7204694E74046D1E7D0467BE73F
:1005C800023B614432E7304609E76444023842E7B7
:1005D800704700BFFEE700BF0B480C4A904203D0AB
:1005E800121A0B4914F0A6FA0A480B4A904203D093
:1005F800121A002114F0ACFA08F092F914F076FA05
:1006080002F0AAFBFEE700BF00000024E00300247C
:10061800E8500108E003002450D20124704700BFCD
:10062800704700BF704700BF704700BF704700BFEA
:10063800704700BF704700BF2DE9F04F0446DFED5B
:10064800FC7A9FEDFC0A04F26C63DFEDFB0A9FED78
:10065800FB1A04F5DE65DFEDFA1A04F274769FEDF5
:10066800F92A04F6943CDFEDF82A04F5826B9FED35
:10067800F73A04F59C61DFEDF63A04F264529FED17
:10068800F54A04F5BD6EDFEDF44A04F5FF689FED09
:10069800F35A04F67C07DFEDF25A04F6841A9FED4C
:1006A800F16A04F60829DFEDF06A9FEDF07A2DED86
:1006B8000A8B87B0DFEDEE8A9FEDEE8AB7EE009ADF
:1006C8009FEDEDAAB3EE04CA019304F5316380ED02
:1006D800970AC0ED938AC0EDA17A80ED94AAC0ED87
:1006E800A27AC0EDA37AC0EDA47AC0EDA57AC0EDD8
:1006F800AA7AC0EDAB7AC0EDAC7AC0EDAD7AC0EDA8
:10070800AE7AC0EDAF7AC0EDB07AC0EDB17AC0ED87
:10071800B27AC0EDB37A80ED968A00F25C40029519
:1007280004F68C25039604F510660493CDF814C0DE
:1007380004F6184CC4ED980A84ED991AC4ED9A1A77
:1007480084ED9B2AC4ED9C2A84ED9D3AC4ED953A2C
:1007580084ED9E4AC4ED9F4A84EDA05AC4EDA65A82
:1007680084EDA76AC4EDA86A84EDA97AC4EDC27ABB
:10077800C4EDC37AC4EDC47AC4EDC57AC4EDC67AB3
:10078800C4EDCB7AC4EDCC7AC4EDCD7AC4EDCE7A83
:10079800C4EDCF7AC4EDD07AC4EDD17AC4EDD27A63
:1007A800C4EDD37AC4EDD47A84EDB80AC4EDB90A9D
:1007B80084EDBA1AC4EDBB1A84EDBC2AC4EDBD2A77
:1007C80084EDBE3AC4EDB48A84EDB5AA84EDB78A47
:1007D800C4EDB63A84EDBF4AC4EDC04A84EDC15AAF
:1007E800C4EDC75A84EDC86AC4EDC96A84EDCA7AF3
:1007F800C4EDE37AC4EDE47AC4EDE57AC4EDE67AB3
:10080800C4EDE77AC4EDEC7AC4EDED7AC4EDEE7A86
:10081800C4EDEF7AC4EDF07AC4EDF17AC4EDF27A62
:10082800C4EDF37AC4EDF47AC4EDF57A84EDD90A0F
:10083800C4EDDA0A84EDDB1AC4EDDC1A84EDDD2A96
:10084800C4EDDE2A84EDDF3AC4EDD73AC4EDD58A8B
:1008580084EDD88A84EDE04AC4EDE14A84EDE25A99
:10086800C4EDE85A84EDE96AC4EDEA6A84EDEB7AEE
:10087800C4EDF68ACBED007A04F2144BDFED7F9AD3
:10088800CBED007A04F5836BDFED7DBACBED007A12
:1008980004F21C4B9FED7BBACBED007A04F5846B18
:1008A800DFED79AACBED007A04F2344BCBED007A78
:1008B80004F5876BCBED007A04F23C4BCBED007A64
:1008C80004F5886BCBED007A04F2444BCBED007A4B
:1008D80004F5896BCBED007A04F24C4BCBED007A32
:1008E80004F58A6BCBED007A04F2544BCBED007A19
:1008F80004F58B6BCBED007A04F5806B84EDFA0A76
:10090800C4EDFB0A84EDFC1AC4EDFD1A84EDFE2A41
:10091800C4EDFF2A84EDF98A8BED003A04F2044B0A
:10092800C4EDF83A8BED004A04F5816BCBED004A33
:1009380004F20C4B8BED005A04F2244BCBED005A19
:1009480004F5856B8BED006A04F22C4BCBED006A45
:1009580004F5866B8BED007A80ED040AC0ED050A7C
:1009680080ED061AC0ED071A80ED082AC0ED092AA5
:1009780080ED0A3AC0ED023A80ED0B4AC0ED0C4A10
:10098800C0ED008AC0ED0E7AC0ED0F7AC0ED107A86
:10099800C0ED117AC0ED127AC0ED177AC0ED187A61
:1009A800C0ED197AC0ED1A7AC0ED1B7AC0ED1C7A39
:1009B800C0ED1D7AC0ED1E7AC0ED1F7AC0ED207A19
:1009C80080ED038A80ED0D5AC0ED135A80ED146A4C
:1009D800C0ED156A80ED167A81ED040AC1ED050AAD
:1009E80081ED061AC1ED071A81ED082AC1ED092A21
:1009F80081ED0A3AC1ED023A81ED0B4AC1ED0C4A8C
:100A080081ED0D5AC1ED008AC1ED0E7AC1ED0F7A64
:100A1800C1ED107AC1ED117AC1ED127AC1ED177AE4
:100A2800C1ED187AC1ED197AC1ED1A7A2EE000BF2E
:100A3800000000004A6CA94B32EBC2514F40E0570E
:100A4800081AAC47FB65E74F0C901B5834295160D6
:100A5800F304B53FFC50395A041B7D5EC0487360EF
:100A680093B06CC01A71A4403E7E4BC0D5393D3F4F
:100A780000442C471D43934500803B4400E02B4530
:100A88000000FA4200002F430040CE45C1ED1B7A1A
:100A9800C1ED1C7AC1ED1D7AC1ED1E7AC1ED1F7A38
:100AA800C1ED207A81ED038AC1ED135A81ED146AF4
:100AB800C1ED156A81ED167A82ED040AC2ED050AC8
:100AC80082ED061AC2ED071A82ED082AC2ED092A3C
:100AD80082ED0A3AC2ED023A82ED0B4AC2ED0C4AA7
:100AE80082ED0D5AC2ED135AC2ED008AC2ED0E7A9C
:100AF800C2ED0F7AC2ED107AC2ED117AC2ED127A08
:100B0800C2ED177AC2ED187AC2ED197AC2ED1A7AD7
:100B1800C2ED1B7AC2ED1C7AC2ED1D7AC2ED1E7AB7
:100B2800C2ED1F7AC2ED207A82ED038A82ED146A43
:100B3800C2ED156A82ED167ACEED008A8EED038A33
:100B48008EED040ACEED050A8EED061ACEED071AD3
:100B58008EED082ACEED092A8EED0A3ACEED023A3C
:100B68008EED0B4ACEED0C4A8EED0D5ACEED135A92
:100B78008EED146ACEED0E7ACEED0F7ACEED107AA8
:100B8800CEED117ACEED127ACEED177ACEED187A37
:100B9800CEED197ACEED1A7ACEED1B7ACEED1C7A0F
:100BA800CEED1D7ACEED1E7ACEED1F7ACEED207AEF
:100BB800CEED156A019B8EED167A83ED040AC3ED1E
:100BC800050A83ED061AC3ED071A83ED082AC3ED5B
:100BD800092A83ED0A3AC3ED023A83ED0B4AC3EDC5
:100BE8000C4A83ED0D5AC3ED135A83ED146AC3ED15
:100BF800008AC3ED0E7AC3ED0F7AC3ED107AC3ED08
:100C0800117AC3ED127AC3ED177AC3ED187AC3EDE2
:100C1800197AC3ED1A7AC3ED1B7AC3ED1C7AC3EDBA
:100C28001D7AC3ED1E7AC3ED1F7AC3ED207A83EDDA
:100C3800038AC3ED156A83ED167A029B83ED040AD5
:100C4800C3ED050A83ED061AC3ED071A83ED082ADA
:100C5800C3ED092A83ED0A3AC3ED023A83ED0B4A44
:100C6800C3ED0C4A83ED0D5AC3ED135A83ED146A94
:100C7800C3ED008AC3ED0E7AC3ED0F7AC3ED107A87
:100C8800C3ED117AC3ED127AC3ED177AC3ED187A62
:100C9800C3ED197AC3ED1A7AC3ED1B7AC3ED1C7A3A
:100CA800C3ED1D7AC3ED1E7AC3ED1F7AC3ED207A1A
:100CB80083ED038AC3ED156A83ED167A039B83EDF2
:100CC800040AC3ED050A83ED061AC3ED071A83ED7E
:100CD800082AC3ED092A83ED0A3AC3ED023A83EDE7
:100CE8000B4AC3ED0C4A83ED0D5AC3ED135A83ED3D
:100CF800146AC3ED008AC3ED0E7AC3ED0F7AC3ED13
:100D0800107AC3ED117AC3ED127AC3ED177AC3EDE9
:100D1800187AC3ED197AC3ED1A7AC3ED1B7AC3EDBD
:100D28001C7AC3ED1D7AC3ED1E7AC3ED1F7AC3ED9D
:100D3800207A83ED038AC3ED156A83ED167AC8ED30
:100D48000E7AC8ED0F7AC8ED107AC8ED117AC8EDA1
:100D5800127AC8ED177AC8ED187AC8ED197AC8ED75
:100D68001A7AC8ED1B7AC8ED1C7AC8ED1D7AC8ED51
:100D78001E7AC8ED1F7AC8ED207A88ED040AC8EDFE
:100D8800050A88ED061AC8ED071A88ED082AC8ED85
:100D9800092A88ED0A3AC8ED023A88ED0B4AC8EDEF
:100DA8000C4A88ED0D5AC8ED135A88ED146AC8ED3F
:100DB800156AC8ED008A88ED038A88ED167AC7EDB2
:100DC8000E7AC7ED0F7AC7ED107AC7ED117AC7ED25
:100DD800127AC7ED177AC7ED187AC7ED197AC7EDF9
:100DE8001A7AC7ED1B7AC7ED1C7AC7ED1D7AC7EDD5
:100DF8001E7AC7ED1F7AC7ED207A87ED040AC7ED82
:100E0800050A87ED061AC7ED071A87ED082AC7ED08
:100E1800092A87ED0A3AC7ED023A87ED0B4AC7ED72
:100E28000C4A87ED0D5AC7ED135A87ED146AC7EDC2
:100E3800156A87ED167AC7ED008A87ED038AC6ED35
:100E4800008AC6ED0E7AC6ED0F7AC6ED107AC6EDA9
:100E5800117AC6ED127AC6ED177AC6ED187AC6ED84
:100E6800197AC6ED1A7AC6ED1B7AC6ED1C7AC6ED5C
:100E78001D7AC6ED1E7AC6ED1F7AC6ED207A86ED7C
:100E8800040AC6ED050A86ED061AC6ED071A86EDB0
:100E9800082AC6ED092A86ED0A3AC6ED023A86ED19
:100EA8000B4AC6ED0C4A86ED0D5AC6ED135A86ED6F
:100EB800146AC6ED156A86ED167A86ED038ACAEDC0
:100EC800008A8AED01AACAED0E7ACAED0F7ACAED38
:100ED800107ACAED117ACAED127ACAED177ACAEDFC
:100EE800187ACAED197ACAED1A7ACAED1B7ACAEDD0
:100EF8001C7ACAED1D7ACAED1E7ACAED1F7ACAEDB0
:100F0800207A8AED040ACAED050A8AED061ACAEDA6
:100F1800071A8AED082ACAED092A8AED0A3ACAEDA3
:100F2800023A8AED0B4ACAED0C4A8AED0D5ACAED0F
:100F3800135A8AED146ACAED156A8AED167A8AED93
:100F4800038A89ED01AAC9ED008AC9ED0E7AC9EDB7
:100F58000F7AC9ED107AC9ED117AC9ED127AC9ED87
:100F6800177AC9ED187AC9ED197AC9ED1A7AC9ED57
:100F78001B7AC9ED1C7AC9ED1D7AC9ED1E7AC9ED37
:100F88001F7AC9ED207A89ED040AC9ED050A89EDB1
:100F9800061AC9ED071A89ED082AC9ED092A89ED4B
:100FA8000A3AC9ED023A89ED0B4AC9ED0C4A89EDB6
:100FB8000D5AC9ED135A89ED146AC9ED156A89ED00
:100FC800167A89ED038AC5ED008AC5ED0E7A049B71
:100FD800C5ED0F7AC5ED107AC5ED117AC5ED127A17
:100FE800C5ED177AC5ED187AC5ED197AC5ED1A7AE7
:100FF800C5ED1B7AC5ED1C7AC5ED1D7AC5ED1E7AC7
:10100800C5ED1F7AC5ED207A85ED040AC5ED050A00
:1010180085ED061AC5ED071A85ED082AC5ED092ADA
:1010280085ED0A3AC5ED023A85ED0B4AC5ED0C4A45
:1010380085ED0D5AC5ED135A85ED146AC5ED156A8F
:1010480085ED167A85ED038AC3ED008AC3ED0E7A25
:1010580083ED040AC3ED050A83ED061AC3ED071AEA
:1010680083ED082AC3ED092A83ED0A3AC3ED023A53
:1010780083ED0B4AC3ED0C4A83ED0D5AC3ED135AA9
:1010880083ED146AC3ED156A83ED167AC3ED0F7A02
:10109800C3ED107AC3ED117AC3ED127AC3ED177A56
:1010A800C3ED187AC3ED197AC3ED1A7AC3ED1B7A2A
:1010B800C3ED1C7AC3ED1D7AC3ED1E7AC3ED1F7A0A
:1010C800C3ED207A83ED038A059BC3ED008AC3ED47
:1010D8000E7A83ED040AC3ED050A83ED061AC3ED03
:1010E800071A83ED082AC3ED092A83ED0A3AC3EDEE
:1010F800023A83ED0B4AC3ED0C4A83ED0D5AC3ED5A
:10110800135A83ED146AC3ED156A83ED167AC3ED9D
:101118000F7AC3ED107AC3ED117AC3ED127AC3EDDD
:10112800177AC3ED187AC3ED197AC3ED1A7AC3EDAD
:101138001B7AC3ED1C7AC3ED1D7AC3ED1E7AC3ED8D
:101148001F7AC3ED207A83ED038ACCED008ACCEDBB
:101158000E7ACCED0F7A8CED038A8CED040ACCED77
:10116800050A8CED061ACCED071A8CED082ACCED91
:10117800092A8CED0A3ACCED023A8CED0B4ACCEDFB
:101188000C4A8CED0D5ACCED135A8CED146ACCED4B
:10119800156A8CED167ACCED107ACCED117ACCED7F
:1011A800127ACCED177ACCED187ACCED197ACCED11
:1011B8001A7ACCED1B7ACCED1C7ACCED1D7ACCEDED
:1011C8001E7ACCED1F7ACCED207A84ED009A84ED5E
:1011D800019A84ED149A84ED169A84ED189A84ED98
:1011E800159A84ED179A84ED199A84ED1A9A84ED6C
:1011F8001C9A84ED1E9A84ED1B9A84ED1D9A84ED49
:101208001F9A88ED01CAC7ED01BAC6ED01BA84ED8F
:10121800D6BA85ED01BACEED019ACCED019AC4EDAE
:10122800F79AC0ED019A04F1DC00C1ED019AC2ED14
:10123800019A049AC2ED019AC3ED019A039A414BAF
:1012480053604FF49072019BC3ED01AA029BC3ED5A
:1012580001AA0023C4ED227AC4F848321946C4ED25
:10126800237AC4ED247AC4ED257AC4ED267AC4ED38
:10127800277AC4ED287AC4ED297AC4ED2A7AC4ED18
:10128800087AC4ED097AC4ED0A7AC4ED0B7AC4ED84
:101298000C7AC4ED0D7AC4ED0E7AC4ED0F7AC4ED64
:1012A800107AC4ED117AC4ED127AC4ED137AC4ED44
:1012B8007F7AC4ED807AC4ED817AC4ED827AC4ED78
:1012C800837AC4ED847AC4ED857AC4ED867AC4ED58
:1012D800877AC4ED887AC4ED897AC4ED8A7AC4ED38
:1012E8008B7AC4ED8C7AC4ED8D7AC4ED8E7AC4ED18
:1012F8008F7AC4ED907A13F02BFC1348134B1449E2
:10130800C4F8C0001348144AC4F8BC30C4F8D83034
:10131800C4F8B810C4F8D4301049C4F8B400204652
:10132800C4F8D0300E4BC4F8B010C4F8CC20C4F8C0
:10133800C820C4F8AC30C4F8C42007B0BDEC0A8B90
:10134800BDE8F08F00401C4696438B3DB6F3FD3C4C
:1013580077BE1F3DC520303D2506813D295C0F3DE8
:10136800E3A51B3D00F67C03F9EE004A30EE206A47
:1013780093ED0A7AF6EE006A93ED0D4AF1EE085AFB
:1013880067EE242AD3ED197A66EE266A93ED1A3AA7
:10139800C7EE043AD3ED1B1A93ED1D1A93ED1E2ADE
:1013A80082EE846A27EE257A30EE660AB1EE005A9C
:1013B800C7EE042A70EEE60A2DE9F0412DED108BF8
:1013C800C3ED1A7A66EE277A93ED1C8A044693EDEC
:1013D800139A00F27470E0EE237AD3ED148A90ED3C
:1013E800067A04F5FF61C3ED1C1A04F5106283ED5B
:1013F8001B3A04F23C4E83ED170A04F5886583ED29
:10140800190A04F24446E2EE837A90ED0D3A93ED20
:10141800150AA6B0C3ED102A04F58967D3ED1F2A73
:1014280004F22C4C83ED0F6A04F5866883ED116A8B
:10143800E6EE217AC3ED0E3A67EE051AC3ED123ACD
:1014480087EE036A83ED1E1A83ED1F2AE3EE887A7E
:10145800D3ED163A81EE834AE9EE417A27EE257AF2
:10146800C7EE031A93ED207AC3ED202AE8EEC27A7C
:10147800E0EE627AE3EEC77AC3ED187AC3ED1D7A1F
:1014880004F53163D0ED193AD0ED1A2A24EE237A07
:1014980090ED1B3A90ED1C0A90ED1D1AA6EE867A87
:1014A800D0ED138AC4ED097AC0ED1A3AD1ED0A3AA3
:1014B80090ED1E2A90ED148AA1EEA27A80ED0E6AB4
:1014C800C0ED101A63EEA41A80ED126AC0ED176A17
:1014D800C0ED196AD1ED0D6AA4EE037A80ED0F4ACA
:1014E80080ED114A83EEA64A80ED1C3AC0ED1B2A16
:1014F800D0ED1F2A80ED1E1AA6EE007A90ED150A8F
:1015080023EEA56A80ED1F2A81EEA63AA8EEC17ADD
:10151800C6EE261AD0ED206A90ED166AC0ED202A94
:10152800A8EE427AA0EE627AA6EE667A80ED187A84
:1015380080ED1D7A04F20C4081ED0E4A81ED0F3AE0
:10154800C1ED101A91ED196AD1ED1A3A63EE066AE7
:10155800D1ED1B2A91ED1C0A81ED1A6AE4EE076AA7
:1015680092ED0A6A91ED1D2A91ED131A26EE248A4E
:1015780081ED197A81ED177A92ED0D7AE1EEA36A81
:10158800C1ED1B3AC8EE073AD1ED1E1AD1ED148A07
:1015980081ED124A81ED113A91ED158AE3EE226A46
:1015A800C1ED1C2AD1ED1F2A81ED1E2AC1ED1F1A9B
:1015B800E4EE006A91ED160A86EE074AE1EE426A09
:1015C80092ED192A26EE256A91ED201AC1ED202AFE
:1015D80086EE073AE8EEE16A23EE827AA0EE847A94
:1015E800E8EE626AE0EE416AC1ED186AC1ED1D6A73
:1015F80004F58261C4ED086A82ED0E4AC2ED0F3A25
:1016080082ED103AC2ED113A82ED124AD2ED1A2A51
:1016180092ED1B6AA3EE227A82ED1A2A92ED1C2A19
:1016280092ED1D3AC2ED1B2AD2ED132A92ED1E1A35
:10163800A3EE867A82ED1E3A82ED1C6A93ED0D6A5E
:10164800D2ED148AC2ED190AD2ED1F1AA4EE027A5D
:1016580093ED0A4AC2ED170A84EE062AD2ED150A5E
:1016680092ED200A92ED168A82ED1F1AC2ED201A19
:10167800A2EEC37A24EE243A64EE253AC3EE062A93
:1016880083EE863A93ED196AD3ED1A3AA8EEC17A39
:1016980022EE864AA0EEE17AD3ED1B0AA2EE274A93
:1016A800A8EE407AA3EE234A82ED187A82ED1D7ADD
:1016B80004F58362A2EEA04A84ED0A7A83ED0E2A2D
:1016C800C3ED0F2A83ED103AC3ED112A83ED122AD8
:1016D800C3ED177A83ED1A6A94EDFC6AD3ED1C8A80
:1016E80026EE050AD0ED001AA2EE284A93ED1D1A3F
:1016F80093ED138A04F5856080EE213AC3ED1B3A19
:10170800DEED002A93ED1F2AC3ED1C0AD3ED150A5E
:10171800C6EE213AC3ED197AA8EE414A26EE256AAB
:1017280086EE210A93ED1E6AD3ED141A83ED1F6A23
:1017380083ED1E1A93ED161AA1EEC64AD3ED201AB0
:1017480023EE226A83ED202AA3EEA76AA0EEC24AFE
:10175800D6ED000AA1EE614A95ED001AA0EE016AE5
:1017680083ED184AB0EE44BA83ED1D4A04F21443DF
:10177800A3EE206A84ED0E4AC1ED003A04F6841106
:1017880083ED003A04F21C4382ED000A04F58462FA
:1017980083ED003A04F24C438DED1F4A97ED004A61
:1017A800D3ED008AA3EE846AC2ED003A04F2344213
:1017B800C2ED007A04F2244291ED0D2A92ED004A1E
:1017C80004F58A6291ED1A0AA4EE686A91ED0A4A54
:1017D800D2ED009AC4EE023A91ED1B8AD1ED13AA1C
:1017E80064EE241A24EE254A81EE823AD8ED001AD6
:1017F80004F5876884EE029A90ED004A04F254409A
:1018080091ED192A90ED00AAA4EE696A9CED004AB0
:1018180004F58B6CA4EE4A6A9CED004AA1EEC46AFA
:10182800D1ED1C1A23EE024AA3EE864AA9EE004A1D
:10183800A3EE084AA3EEA14AD1ED1D1A88ED006A6D
:10184800C7ED000A86ED001AC5ED002A91ED1E1AB3
:10185800AAEEE14ACEED007A8CED00AAC0ED009A1E
:1018680004F68C20C2ED008A04F6184283ED006A63
:1018780004F5BD6381ED0F3A81ED113A91ED143A0B
:1018880081ED109AA3EE414AC1ED0E3AC1ED123A2C
:1018980081ED176AD1ED1F0A94ED993AD4EDA02A8B
:1018A80081ED1A2A23EE052AD1ED153A81ED1C8A1D
:1018B80023EE258AA3EEE04AC1ED1E1AC3EE223AB2
:1018C800D4EDAC1A81ED196A81ED1B0A91ED160A67
:1018D80081ED1F1A82EE223A94EDAD1A88EE222A83
:1018E800D1ED202AC1ED200AD4EDAF0AA0EE624A5C
:1018F800D4EDB02A94EDB20A23EE216A81ED184A9C
:1019080081ED1D4AF0EE449A8DED1E4A04F694319D
:10191800A3EEA76A84ED0F4A94EDAE4A84EDA23A8D
:1019280084EDA43AC4EDA13A84EDA32AA2EE016A9B
:10193800C4EDA53A94EDB12AC4EDAA7AA3EE046ADF
:1019480094EDA63AA3EEA06AD4EDA73AA3EE626A94
:10195800A3EEC26AD4EDA83A84EDAF4A92ED0A4AE2
:10196800C4EDAD1A64EE241A92ED0D3AC4EDAC7ACA
:1019780064EE257AA3EEC06A84EDAE1AC4EE033A8B
:1019880092ED1A1AD2ED1B0AC4EDB12AD2ED132A30
:1019980084EDB22A81EE834AD2ED191A92ED142A07
:1019A80092ED159AD4EDA98A87EE838A92ED1C3AB6
:1019B80064EE217AE3EEA67AE8EE017AE4EE207A84
:1019C800E3EE837A92ED1D3AE2EEC37AD2ED1E2A57
:1019D800E2EE627A92ED1F2AE9EE427A94EDB39A2A
:1019E80084EDB30AA8EEC96A84EDAB6AB0EE460A84
:1019F80084EDB06A84ED106A8DED1D6A82ED108A5F
:101A0800C2ED0E3AC2ED123AC2ED176A82ED0F4AE4
:101A180082ED114A92ED164A92ED206AE4EE467A7A
:101A280093ED064A82ED1B1A24EE051AC2ED1C0A34
:101A380064EE253AC2ED187AB0EE678ACDED1C7ACD
:101A4800D3ED0D7A82ED202A84EE276AC2ED1A1AA8
:101A5800C2ED196A81EE274A83EEA72AD3ED193A17
:101A680082ED1E3A93ED1A3AC2ED1F2AD3ED1B2AD6
:101A780082ED1D8AB0EE481A84ED0B8A04F59C624B
:101A880083ED1B3A83ED0E6A83ED126AC3ED176A84
:101A980064EE237A83ED0F4A83ED114AE6EE267A47
:101AA80083ED102AE2EE037A93ED1C2A93ED1D3A9A
:101AB800C3ED1C2AE4EE227AD3ED132A93ED1F4AD4
:101AC800E6EE027A93ED1E2A93ED146AE2EEC37AEB
:101AD800E6EE427A93ED156AD3ED162AC3ED1A3A6B
:101AE800E6EE447A93ED206AE2EEC67A90ED0A6A51
:101AF800D0ED0D2A66EE241A83ED1E3AC6EE223A80
:101B080083ED204A83ED1F2AC3ED196AC3ED187AC5
:101B1800C3ED1D7A04F6082381EEA23AC0ED177AC8
:101B2800D0ED1C1A26EE254A90ED196AC0ED197AF7
:101B380084EE222AD0ED1A2A80ED1A6A90ED1B4A0B
:101B4800C0ED0E3A80ED1C4AC0ED123AC0ED1B2ADA
:101B580023EE066A80ED0F3A80ED113AA3EEA76AEC
:101B680080ED102AF0EE467A90ED1D6AE2EE227AB8
:101B780090ED142AE3EE047A90ED134A90ED1E3AA4
:101B8800E3EEA17AD0ED153AE4EE467A90ED1F4ADD
:101B9800D0ED162A80ED1E6A94EDDB6A80ED1F3ABF
:101BA800E2EE437A94EDE23A26EE052AE3EEC47AB1
:101BB800D0ED203A80ED204A86EE034AE2EEE37A41
:101BC800D4EDEF2AC2EE033A26EE256AC0ED187A64
:101BD800F0EE670ACDED1B7AD4EDEE7A86EE032A95
:101BE80094EDF13AC0ED1D0AC4EDEF7AC4EDEC6A4C
:101BF800C4EDEE6A94EDF36AC4ED0C0A84EDE34A91
:101C080063EEA77AC4EDE43AC4EDE63A84EDE74A18
:101C1800E4EE267AD4EDF06AC4EDF02AC4EDF16A58
:101C280084EDE52AE2EE227AD4EDE92AE3EEA67AFB
:101C3800D4EDF26AD4EDE83AC4EDF36AE4EE037A3F
:101C480094EDEA3AE3EEE67AD4EDF46A94EDF54AD7
:101C580084EDF46AD4EDEB3AC4EDF56AE2EEC67AA7
:101C680091ED0A6A66EE252AE3EE667A26EE243AB4
:101C7800E3EEC47A91ED0D4AD1ED1A3AC6EE046A44
:101C8800C4EDED7A83EE046AC4EDF27AC4ED0D7A00
:101C9800CDED1A7A81ED177A82EE843A91ED1B4ADE
:101CA800C1ED1B3AB0EE678AD1ED197AC1ED0E6A23
:101CB800C1ED1A7A81ED197AC1ED126A66EE277ABA
:101CC80081ED0F6A81ED116AE6EE877A81ED103AAF
:101CD800E3EE237A91ED1C3AD1ED1D3A81ED1C4AD1
:101CE800E6EE047A91ED136A91ED1E4AC1ED1E3AB3
:101CF800E6EE837A91ED143AD2ED066AE6EE637A5F
:101D0800D2ED0D3A91ED1F6A81ED1F4AD1ED152AEA
:101D1800E3EE447A91ED204A91ED163A81ED206A7E
:101D2800E2EEC67A86EEA36AF0EE678A66EE857AF8
:101D380066EEA56AE3EE448A87EEA34A86EEA33AE6
:101D4800D2ED196AD2ED1A3AC1ED188AC1ED1D8A91
:101D5800C4ED118AC2ED1A6A82ED0E6A82ED126A2A
:101D680082ED177A82ED197ACDED198A64EE267A1A
:101D7800D2ED1B6A82ED0F4A82ED114AE6EE077A30
:101D8800C2ED1B3A82ED103AE3EE237AD3ED0A3A1C
:101D980092ED153A63EEA44A63EEA52AE4EE267A9C
:101DA80092ED1C4AC2ED1C6AD2ED1D6AE6EE047A79
:101DB80092ED134A92ED1E6AC2ED1E6AE4EE667A4F
:101DC80092ED144AD2ED1F6A82ED1F6AE4EE467A5C
:101DD80092ED206A92ED164AC2ED206A93ED162A1A
:101DE800E3EE667AD3ED0D6A82EEA63AD3ED202AA9
:101DF800E4EE467A84EEA64AD3ED1A4A83EEA66A42
:101E0800D3ED193AC2ED187AC2ED1D7AC3ED177AEF
:101E1800C3ED197AC3ED1A3A83ED103A64EE236ADA
:101E2800D4EDBA3A83ED0F4A83ED114A23EE855A71
:101E380063EEA55AE6EE276A83ED0E6A83ED126A11
:101E4800F0EE667AD3ED1B6AC3ED1B4AE3EE247A03
:101E5800D3ED1C4AC3ED1C6AE4EE267AD3ED1D6A65
:101E680093ED134AE6EE247A93ED1E6AD3ED144AF5
:101E7800C3ED1E6AE4EE667AD3ED1F6A83ED1F6A2E
:101E8800C3ED206AE4EEC67AD3ED154AE4EEE67AAD
:101E9800D4EDC14A94EDCD3A85EE246A94EDD15A39
:101EA800C3EEA46AD4EDC73A85EEA44AD4EDCE5A5F
:101EB800D4EDCF4AE2EE627AC3ED187AB0EE672A23
:101EC800C3ED1D7ACDED187AC4ED127A66EE037A69
:101ED80084EDCB7A84EDCD7AE6EE877A94EDD07AEC
:101EE80084EDC44AC4EDCF5AC4EDD04AC4EDC26AE9
:101EF80084EDC36AE4EE257AD4EDD25A94EDC84A4B
:101F080084EDC56AC4EDC66AD4F8483284EDCE3A89
:101F1800E6EE247AD4EDC94A94EDCA6A072B84ED1B
:101F2800D25AE6EE877A94EDD37AD4EDD46AC4ED2A
:101F3800D35A84EDD47AE3EEC57AE4EE657AE4EE1A
:101F4800C77AE6EE667AC4EDCC7AF0EE67DAC4EDCD
:101F5800D17AC4ED137A00F3DE8204EB8303B0EE8A
:101F6800C87AB0EECBFA04F1DC0083ED37BAF0EEB4
:101F7800E91AC3ED3F9AF0EEC02A83ED470AB7EE9F
:101F8800C7CAC3ED570AB7EECF6A83ED5F8AB0EED2
:101F9800C25AC3ED678AB0EEC14A83ED4F1AF0EE1C
:101FA800E05A83ED6F2AB7EEE10AC3ED777AB7EE10
:101FB800C49AD4ED7F7AB7EEE5AA94ED852AB7EEF8
:101FC800C55AB7EEE73A94ED801AF0EEE87AD4ED08
:101FD800824AB7EEE28A94ED87DAB7EEC11AB7EE15
:101FE800E77AB7EEE44AB0EEEDBA8DED167BB7EEC0
:101FF800C27AB7EECBBA8DED006B8DED023BD4ED16
:10200800836AD4ED813A94ED863A94ED846A8DED35
:10201800040B8DED088BB7EEE30AB7EEE68AB7EE50
:10202800C6FA8DED207BB7EECD7A8DED061B8DEDD2
:102038000A0B8DED0C9B8DED0E4B8DED10ABB4EEB8
:10204800004B8DED128B8DED14CB8DED225B8DED5C
:10205800247BB7EEC35A94ED8B0A94ED8C1A94ED59
:102068008DCA94ED88AA94ED8EEA94ED899AD4ED00
:102078008F6A94ED8A8A94ED907A9DED002B9DED00
:10208800023BA2EE043B9DED062B8DED003B9DED42
:10209800043BA3EE042B9DED0A3B8DED022B9DED39
:1020A800082BA2EE043B9DED0E2B8DED043B9DED20
:1020B8000C3BA3EE042B9DED123B8DED0C2B9DEDFF
:1020C800102BA2EE043B9DED142BA2EE04FB8DED2C
:1020D8000E3B9DED162B9DED203BA2EE043BB0EE92
:1020E800432B9DED223BA3EE045BB0EE453B9DEDFB
:1020F800245BABEE045B9DED004BF7EEC47B9DEDDE
:10210800024BCDED067AF7EEC47BCDED087A9DED56
:10211800044BF7EEC47B9DED0C4BCDED0A7AF7EE40
:10212800C47B9DED0E4BCDED0C7AF7EEC47BCDED67
:102138000E7AF7EECF7BCDED107AF7EEC27BCDEDC0
:10214800127AF7EEC37BCDED147AF7EEC57BCDEDB1
:10215800167A94ED366ADFED4C7AF0EEC65AF4EE54
:10216800E75AF1EE10FA09D4F0EEC05AF4EEE75A45
:10217800F1EE10FA02D4C6EE00BA01E0F7EE00BAAA
:10218800D4ED353ADFED407AF0EEE35AF4EEE75A53
:10219800F1EE10FA09D4F0EEC15AF4EEE75AF1EE76
:1021A80010FA02D483EE81BA01E0B7EE00BAD4ED9A
:1021B800341ADFED357AF0EEE15AF4EEE75AF1EE33
:1021C80010FA09D4F0EECC5AF4EEE75AF1EE10FA10
:1021D80002D4C1EE8CCA01E0F7EE00CA94ED332AAE
:1021E800DFED295AF0EEC27AF4EEE57AF1EE10FA54
:1021F8000FD4B6EE005A6AEE057AEEEE057AB0EE26
:10220800E75AB4EEE55AF1EE10FA02D4C2EE27AA64
:1022180001E0F7EE00AAD4ED322ADFED1B5AF0EE0A
:10222800E27AF4EEE57AF1EE10FA0FD4B6EE005A3F
:1022380069EE057AE6EE857AB0EEE75AB4EEE55A2D
:10224800F1EE10FA02D4C2EEA79A01E0F7EE009A76
:1022580094ED313ADFED0C5AF0EEC37AF4EEE57AFC
:10226800F1EE10FA12D4B6EE005A68EE057AE7EEEF
:10227800057AB0EEE75AB4EEE55AF1EE10FA05D455
:10228800C3EE278A04E000BF5F708930F7EE008A4A
:10229800D4ED307A4FF07E52DDED0C5A4FF07A5380
:1022A800C4ED14BAF4EEE57A84ED16BAC4ED18CA92
:1022B800C4ED15AAF1EE10FA22606360C4ED179A16
:1022C800C4ED198A40F320829DED1C5AB5EEC05A20
:1022D800F1EE10FA00F3BB8300F12584DDED1C7AE2
:1022E8009DED0E6AC4ED0B7AD4ED2F7AF4EEC67A22
:1022F800F1EE10FA40F32F82DDED1B5AF5EEC05ACD
:10230800F1EE10FA00F3988300F11D84DDED1B7ADD
:102318009DED106AC4ED0C7AD4ED2E7AF4EEC67AEF
:10232800F1EE10FA40F33E82DDED1A5AF5EEC05A8E
:10233800F1EE10FA00F3758300F11584DDED1A7AD9
:102348009DED066AC4ED0D7AD4ED2D7AF4EEC67AC9
:10235800F1EE10FA40F34D829DED1F5AB5EEC05ACA
:10236800F1EE10FA00F33C8300F1B4839DED1F6A8F
:10237800DDED085A84ED0E6A94ED2C6AB4EEE56A38
:10238800F1EE10FA40F35C82DDED1E4AF5EEC04A2C
:10239800F1EE10FA00F3198300F16F83DDED1E5A98
:1023A800D4ED2B3AC4ED0F5ADDED0A5AF4EEE53AB6
:1023B800F1EE10FA40F36B82DDED1D4AF5EEC04AEE
:1023C800F1EE10FA00F3228300F16683DDED1D5A69
:1023D800C4ED105ADDED125AF4EEE57AF1EE10FA7A
:1023E80040F37C829DED195AB5EEC05AF1EE10FA11
:1023F80000F3018300F15F83DDED197AC4ED117AF2
:10240800DDED147AB4EEE76AF1EE10FA40F38D824E
:10241800DDED185AF5EEC05AF1EE10FA00F32283FA
:1024280000F17283DDED187AC4ED127ADDED167ACB
:10243800F4EEE73AF1EE10FA40F39E82F5EEC0DAD8
:10244800F1EE10FA00F3B88200F153834FF4907262
:102458000021C4ED13DA12F07BFBDDED1B7ADDED14
:102468001C6A4FF07C532BEE27BADDED1E7A9DEDEA
:10247800187A002269EEA77A04F18000ABEEA6BABA
:10248800DDED1F6A69EE879AC4F8FC31EAEEA67A98
:10249800DDED196AB5EE007AC4F80032EAEEA69AC4
:1024A800DDED1A6AC4F80432ACEEA6BADDED1D6A99
:1024B800C4F80832E8EEA67AC4F80C32C4F8103230
:1024C800E8EEAD9AC4F81432C4F81832F0EE4B6A4C
:1024D800C4F81C3284ED887A84ED897AE7EE876A3D
:1024E80084ED8A7AA9EE87BA84ED8B7A84ED8C7AAA
:1024F80084ED8D7A84ED8E7A84ED8F7A84ED907AEE
:10250800C4F84822C4ED206A84ED21BA26B0BDEC97
:10251800108BBDE8F081D4ED7F7A04F1DC0094EDF6
:102528008DCA04F1FC02CDED067A0346D4ED807A1B
:1025380094ED8EEACDED087AD4ED817AF0EE4E2A4C
:1025480094ED899AB0EE4CEACDED0A7AD4ED827A10
:10255800B0EE49BA94ED8A8ACDED0C7AD4ED837A3F
:10256800B0EE48DA94ED8B0ACDED0E7AD4ED847A8C
:10257800B0EE40FA94ED8C1ACDED107AD4ED857A50
:10258800B0EE41CA94ED88AACDED127AD4ED867AE0
:10259800D4ED8F6ACDED147A94ED907AD4ED877AE4
:1025A800CDED20DACDED167AB3EC019AB7EECEEA8E
:1025B800DDED067AB7EECAAA93ED078AB7EECBBA75
:1025C80039EE679ADDED087A93ED0F0AB7EECDDAAA
:1025D80038EE678ADDED0A7A93ED171AF0EEC93AFC
:1025E80030EE670ADDED0C7A93ED1F2AF0EEC84A4B
:1025F80031EE671ADDED0E7A93ED273AF0EEC05A08
:1026080032EE672ADDED107A93ED2F4AB0EEC16AFB
:1026180033EE673ADDED127A9DED145AB7EEE60A0D
:1026280034EE674AD3ED377ADDED161AB0EEC33AC9
:1026380077EEC57A93ED3F5AB7EEC78A934235EEE7
:10264800615AB7EEE21AB7EEE39AB0EEC44AB7EEB3
:10265800C33AF0EEE77AB0EEC22AB0EEC55AB7EE4A
:10266800E77AB7EEC22AB7EECFFAB7EECCCA8DED4D
:10267800001BB7EEC61AB4EE006B8DED048BA3EE0B
:1026880006EBB7EEE48AB7EEC44AA2EE06CBA9EE93
:1026980006ABA8EE06BBA1EE06FBB7EECAABB7EEDB
:1026A800CCCBB7EECBBBB7EECEEB9DED003B8DEDC3
:1026B800020BB7EEE50AA4EE063BB7EEC55AA0EE4C
:1026C80006DBB7EECFFBF7EEC32B9DED024BA7EE73
:1026D800064BB7EECDDB9DED047BA5EE067BF7EE52
:1026E800C46BB7EEC77B7FF45FAFB0EE4C1ADDED7D
:1026F80020DAB0EE4ECAB0EE4F0AB0EE62EAB0EEA3
:102708004D8AB0EE4B9A24E57FF5E8ADDDED0C5A25
:102718009DED1C5AF4EEC55AF1EE10FA00F18582CF
:10272800DDED0C0A9DED1CDAB7EEE05AB7EECD4AA6
:10273800B1EE455BB4EEC54BF1EE10FA7FF5CEADC8
:1027480026EE206AC6EE005A75EE8D5A75EEE77AC7
:10275800CDED1C7AC2E57FF5D9AD9DED1B6ADDEDA7
:102768000E5AB4EEE56AF1EE10FA00F36A829DEDB6
:102778000E6ADDED1B0AB7EEC65AB7EEE04AB1EEB7
:10278800455BB4EEC54BF1EE10FA7FF5BFAD63EED5
:10279800863A83EE816A36EE206A76EE677ACDED68
:1027A8001B7AB3E57FF5CAAD9DED1A6ADDED105AC7
:1027B800B4EEE56AF1EE10FA00F31B829DED106AA3
:1027C800DDED1A3AB7EEC65AB7EEE34AB1EE455B0D
:1027D800B4EEC54BF1EE10FA7FF5B0AD61EE861A96
:1027E80081EE8C6A36EE236A76EE677ACDED1A7A38
:1027F800A4E57FF5BBAD9DED1F6ADDED065AB4EE8D
:10280800E56AF1EE10FA00F302829DED066ADDED4D
:102818001F3AB7EEC65AB7EEE34AB1EE455BB4EEDF
:10282800C54BF1EE10FA7FF5A1AD22EE066AC6EEB1
:102838000A5A35EEA36A36EE676A8DED1F6A95E58A
:102848007FF5ACADDDED085A9DED1E5AF4EEC55A84
:10285800F1EE10FA00F1B181DDED083ADDED1E1A56
:10286800B7EEE35AB7EEE14AB1EE455BB4EEC54BBD
:10287800F1EE10FA7FF592AD62EEA35A85EE895A11
:1028880075EE215A75EEC65ACDED1E5A86E57FF5CE
:102898009DADDDED1D5A9DED0A5AF4EEC55AF1EED7
:1028A80010FA00F39881DDED0A1A9DED1D1AB7EEB6
:1028B800E15AB7EEC14AB1EE455BB4EEC54BF1EE55
:1028C80010FA7FF583AD63EE215A85EE885A75EECE
:1028D800015A75EEE35ACDED1D5A77E57FF58CADBB
:1028E800DDED195A9DED125AF4EEC55AF1EE10FAC3
:1028F80000F34981DDED121A9DED191AB7EEE15A80
:10290800B7EEC14AB1EE455BB4EEC54BF1EE10FA35
:102918007FF572AD22EE212AC2EE0E5A75EE815A6B
:1029280075EEE77ACDED197A66E57FF57BADDDEDDD
:10293800187ADDED145AF4EEE57AF1EE10FA00F3A8
:102948002F81DDED147A9DED182AB7EEE75AB7EE20
:10295800C24AB1EE455BB4EEC54BF1EE10FA7FF515
:1029680061AD62EEA72AC2EEA67A77EE827A77EE9A
:10297800C67ACDED187A55E57FF568ADDDED167AA6
:10298800F4EEED7AF1EE10FA16D4DDED167AB7EE24
:10299800ED5AB7EEE76AB1EE466BB4EEC65BF1EE00
:1029A80010FA7FF553AD23EE273AC3EE077A77EE98
:1029B800AD7A77EEE3DA49E523EE273AC3EE077AF4
:1029C8007DEEE77A77EEA3DA40E522EEA55AC5EE6A
:1029D800095A74EEE55A75EE865ACDED1E5ADDE4B5
:1029E80062EE065A85EE8A6A35EE466A36EE276A40
:1029F8008DED1F6ABAE422EE252AC2EE0E5A75EE54
:102A0800655A75EEA77ACDED197AF5E423EE255AC5
:102A1800C5EE085A74EEE55A75EEA35ACDED1D5A67
:102A2800D4E461EE861A81EE8C6A35EEC66A76EEDB
:102A3800277ACDED1A7A81E463EE863A83EE816ACD
:102A480035EEC66A76EE277ACDED1B7A5EE426EE81
:102A5800256AC6EE005A75EE655A75EEA77ACDED71
:102A68001C7A3BE462EEA72AC2EEA67A75EEE77AF4
:102A780077EE867ACDED187AD4E4DDED085A22EEA9
:102A8800A55AC5EE095A9DED1E5A75EE855A75EE82
:102A9800C65ACDED1E5A81E4DDED0A5A23EE255AB9
:102AA800C5EE085A9DED1D5A75EE855A75EEE35A26
:102AB800CDED1D5A8AE4DDED125A9DED195A22EE2C
:102AC800252AC2EE0E5A75EE855A75EEE77ACDEDD7
:102AD800197A91E49DED066A62EE065A85EE8A6AD5
:102AE800DDED1F5A36EE256A36EE676A8DED1F6AF0
:102AF8003CE4DDED167A23EE273AC3EE077A77EE4B
:102B0800AD7A77EEE3DAA1E4DDED147A62EEA72A76
:102B1800C2EEA67ADDED186A77EEA67A77EEC67A67
:102B2800CDED187A7EE4DDED0C5A66EE255A85EE79
:102B3800806ADDED1C5A36EE256A76EE677ACDEDB1
:102B48001C7AFFF7CBBB9DED0E6ADDED1B5A63EED9
:102B5800863A83EE816A36EE256A76EE677ACDED9F
:102B68001B7AFFF7D3BB9DED106ADDED1A5A61EEB3
:102B7800861A81EE8C6A36EE256A76EE677ACDED96
:102B88001A7AFFF7DBBB22EE052A9DED195AC2EE31
:102B98000E5A75EE655A75EEA77ACDED197A2BE4C3
:102BA80062EEA52AC2EEA67ADDED186A76EEE77A1D
:102BB80077EE867ACDED187A34E422EEA55AC5EE82
:102BC800095A9DED1E5A75EE655A75EE865ACDED79
:102BD8001E5AFFF7E3BB23EE055AC5EE085A9DEDD2
:102BE8001D5A75EE655A75EEA35ACDED1D5AFFF7BD
:102BF800EDBB61EEA51ADDED1A5A81EE8C6A35EE51
:102C0800C66A76EE277ACDED1A7AFFF797BB62EEA1
:102C1800255A85EE8A6ADDED1F5A35EEC66A36EE0C
:102C2800276A8DED1F6AFFF7A1BB66EE255A85EE70
:102C3800806A35EE466A76EE277ACDED1C7AFFF784
:102C48004DBB63EEA53ADDED1B5A83EE816A35EE86
:102C5800C66A76EE277ACDED1B7AFFF757BB00BF21
:102C680010B54FF0814204464FF07A5300200021FE
:102C78004FF07E5CA0602260C0226360C1230848D8
:102C880062614FF40042206104F12400C4F80CC0D2
:102C9800E161A361216211F05BFF204610BD00BF16
:102CA80000803B474FF081434FF07A514FF07E5CF4
:102CB800002210B5036004460B4B243040F8201C5A
:102CC800002140F81C2C4FF4004240F8143C40F816
:102CD80018CC11F03DFF0023C021C122C4E90733FD
:102CE800C4E9051210BD00BF00803B4790ED047A8F
:102CF800B5EEC07AF1EE10FA05D8DFED157AB0EE30
:102D0800677AC0ED047AD0ED007ADFED126A67EEDB
:102D1800A67A67EE877AFDEEE77A17EE903A002BEF
:102D280009DDB3F5805F0BDB40F6FF73436140F6C6
:102D3800FF738361704701220223C0E905237047AE
:102D48005A1CB2F5805FC0E90532F0D0F2E700BF47
:102D580000803B476F12833A2DE9F0470021E6488F
:102D68000027DFF828940124E44EDFF82484E44D9A
:102D78002DED048B88B0F7EE008A01F081F8102160
:102D8800DD4800F0A5FFDC4800F0B8FF3946DD4A11
:102D980009F10C00B0EE408A11F0DAFE3946D94A42
:102DA800D9489FEDDA9ADFEDDA9AC9E9017411F092
:102DB800CFFED84BDFEDD87A03F5086AD748DFF89D
:102DC800D4C303F2FC72CAED007A03F6041AD4499C
:102DD800CAED007A03F5296ADFEDD27A1160CAEDEF
:102DE800007A03F6881AC3F8DC03CAF8006003F611
:102DF8000C2AC3F85062CAF8006003F2EC5AC3F810
:102E0800D462CAF8000003F61C4AC3EDD67ACAF8A1
:102E1800000003F58C6AC3ED008ACAF8000003F2CB
:102E2800E44AC3ED018ACAF8000003F5AD6AC3EDB0
:102E3800148ACAF8000003F6143AC3ED168ACAF8D1
:102E4800000003F6983AC3ED188AC3ED158AC3ED5E
:102E5800178AC3ED198AC3ED1A8AC3ED1C8AC3ED1C
:102E68001E8AC3ED1B8AC3ED1D8AC3ED1F8ADFEDE1
:102E7800AE7ADFF824E3AD49AD4AC8E90174CAF86F
:102E8800000003F5EF6AAB48C3F8BCC0C3F8D8C06C
:102E9800C3F8D4C0C3F8D0C003F5CE6CCAED007A2D
:102EA800CCF8000003F2F46CDFEDA37ACCF8000054
:102EB80003F25C40C3ED307A80ED008A03F59C6034
:102EC800DFED9E7A80ED008A03F26450C3ED2E7A1E
:102ED80080ED008A03F5BD60DFED997A80ED008A08
:102EE80003F26C60C3ED2D7A80ED008A03F5DE6095
:102EF800DFED947A80ED008A03F27470924C80EDD5
:102F0800008A03F68410C3ED2C7A80ED008A03F65C
:102F18000820DFED8E7A80ED008A03F68C20DFF83A
:102F28007CC280ED008A03F53160C3F8CCE080ED07
:102F3800008A03F69430C3F8C8E080ED008A03F6EF
:102F48001840C3F8C4E080ED008A8148DFF850E2F9
:102F5800C3ED2B7A83ED938A83EDB48A83EDD58A0A
:102F680083EDF68A0E60A860A0607A48C5F800E094
:102F7800C4F800E0C5F804C0C4F804C0166081EDC8
:102F8800078A82ED078A81ED019A81ED039A81ED26
:102F9800049A81ED059A81ED069A81ED029A82EDF7
:102FA800019A82ED039A82ED049A82ED059A82EDE8
:102FB800069A82ED029A85ED058A84ED058A85EDEB
:102FC800039AC5ED048A84ED039AC4ED048AFFF7D9
:102FD80069FEB4EEC98A5F485F4D6C46F1EE10FA9F
:102FE80088BFF0EE489AC0ED049AFFF77FFE5B4871
:102FF800FFF758FE5948C0ED049AFFF777FEB7EE81
:10300800C87ADFED570A9FED3A6B0FCD27EE067BA6
:1030180005F110060FC495E80F00B7EEC70B84E85A
:103028000F00022269464F4802F002FBA5F1100E7C
:10303800EC46F0EE680AB0EE490ABEE80F00ACE8CC
:103048000F0095E80F0084E80F003A4669464648A5
:1030580002F0EEFAEC46F0EE680AB0EE490A0FCE3E
:10306800ACE80F0096E80F0084E80F003A4669467E
:103078003E486F4602F0DCFAA6F1100CDFED3C0A80
:103088009FED3C0ABCE80F000FC796E80F0084E8E4
:103098000F0069460222384802F0CAFAF6EE087AAA
:1030A800364AA5F17800364B28EE278AFDEEC87A15
:1030B80082ED008A334A17EE901AB8EEE77A82ED6D
:1030C800008A994238EE478A28BF194689ED008A56
:1030D800C9F80810C8F8081088ED008A00F010FE3A
:1030E8002949A5F1780000F0F1FDFEE7AFF3008073
:1030F8009A9999999999A93FC884002400803B44DA
:10310800BC240124005307000C0000C0000000008C
:1031180000803B47201801240000FA4200E02B45BC
:103128000000A04100002F4300401C46A8170124BE
:10313800C81701240040CE4596438B3D77BE1F3DFE
:10314800C520303D295C0F3DD4240124E3A51B3D57
:103158000AD7A33DEC24012430850024A4040024CC
:103168000060EA47E8170124FC0300243404002423
:1031780000409C46000048436C04002418A5012424
:10318800BFD4010010A50124A93A00080C5307C0B8
:10319800000000C0B6F3FD3C2506813D6F12033BDD
:1031A8003333733F0000000070B505466E480C4687
:1031B8002DED028B02F064F96C4885ED000A02F0EF
:1031C8005FF96B4B84ED000A1B68002B4BD0012B79
:1031D80046D1684802F05CFA674B684883ED000AFC
:1031E80002F056FA664D674B674883ED000A02F015
:1031F8004FFAD5ED077AB0EE407A644EF5EEC07A14
:1032080086ED000AF1EE10FA40F299809FED608A8F
:10321800B4EEC87AF1EE10FA31D85E4CD5ED017AE9
:10322800D4ED076A77EEA77A85ED008AF4EEC86ACE
:10323800C5ED027AF1EE10FA40F28C80B7EE005B31
:10324800DFED537A94ED017AC4ED007AB7EEC76AE0
:1032580086EE057B37EE067BB7EEC77B84ED027AF8
:10326800BDEC028B70BD4C4802F012FA4B4A4C4B35
:1032780082ED000A2268BDEC028B1A6070BD9FEDDA
:10328800385BB7EEC77A95ED076A424CB7EEC66A67
:1032980027EE057B87EE060BB7EEC00B11F0ECFAB4
:1032A800F7EE006A95ED016AB7EE004BDFED3D7A67
:1032B80036EEC00AD4ED073AB7EEC65A96ED007A54
:1032C800F5EEC03A88FE008A87FEC88AB7EEC86A5B
:1032D80085ED008AF1EE10FA34EE464B85EE046B6C
:1032E80036EE056BB7EEC66B85ED026A32D99FEDF7
:1032F800288AB4EEC87AF1EE10FA9FD9B7EEC77AE9
:1033080094ED076A9FED165BB7EEC66A27EE057B5C
:1033180087EE060BB7EEC00B11F0AEFAB7EE007AE7
:10332800DFED207AB7EE005B37EE400A88FE008AB0
:10333800C7FEC87AB7EEE76A35EE465B82E79FEDCF
:10334800148A194BB4EEC87AEB61F1EE10FA7FF6E5
:1033580064AF94E7144BE361C9E700BFAFF30080A3
:10336800F1D4C853FB2119C03085002450850024AE
:1033780024A501243404002428A50124FC030024E6
:10338800A81701241CA501246C04002414A50124F9
:1033980000000000C8170124E817012418A501241B
:1033A80020A5012477BE7F3F00803B4710B5214C04
:1033B800B0EE401A2368012B2DED028BB0EE608A27
:1033C8001FD09FED1D0A21EE000A73BBF0EE410AE3
:1033D8001A4802F0DBF92368012B1CD09FED160A6E
:1033E80028EE000AF3B9F0EE480AB0EE481A14487D
:1033F80002F0CCF91348BDEC028BBDE8104000F098
:103408009FBCDFED0D0A0D4860EE200A02F0BEF900
:103418002368012BE2D1DFED080AB0EE480A68EE16
:10342800200AE2E7B0EE408ADDE7B0EE401AF0EE9F
:10343800400ACDE724A5012400000000A08500244F
:10344800F4850024C88400240023134A134814492F
:1034580010B5144C82B01360134A036020460B6009
:10346800136000F051FC204600F05AFC01A96846A0
:10347800FFF79AFE94F8443003B1636E0B4ADDED12
:10348800010A11689DED000A5B1803F0010313603F
:10349800FFF78CFF02B010BD28A501241CA501244C
:1034A80020A50124C884002418A5012424A50124EA
:1034B800534B544AD3ED007A92ED007ADFED526A0D
:1034C80037EE677ADFF854C12DE9F04FE7EE267A38
:1034D8004E4EDCF80470B7EE007A4D4CDFF840E150
:1034E8004C4DFDEEE76AC3ED007AD5F8049016EE70
:1034F800903AF8EEE66AB34277EEE67A28BF3346AA
:10350800DA19AB60CCF808304B44A4FB028B02F10B
:10351800010AC5ED007A4FEADB3BCCED007A0EFBE1
:103528001B220CEB8202D2ED036AA4FB0A82D20BA7
:103538000EFB12AAA4FB03820CEB8A0AD20B9AEDAB
:10354800036A03F1010A0EFB123236EE666A05EBD6
:103558008202E7EE866AC0ED006AD2ED037AA4FB28
:103568000A2395ED006ADB0B2B4A0EFB13AA0CEB22
:10357800870337444E4405EB8A0A05EB8909DAEDDF
:10358800036A76EEE76AE6EE867AB0EE406AC1ED47
:10359800007AD0ED007AD2ED006AA7EEA66A77EE3F
:1035A800667A27EE800A83ED036AB0EE606AD0ED92
:1035B800007AA4FB0732A4FB0643A6EEA70AD20BA7
:1035C800DB0B0EFB1277144A0EFB1366CCF8047063
:1035D80080ED000AD2ED006AD1ED005A77EE667AE6
:1035E8006E60A5EEA66A27EEA07A89ED036AD1ED92
:1035F800007AA6EEA77A81ED007ABDE8F08F00BFC9
:1036080010A5012418A50124F7CC9238BFD40100D5
:1036180073B2E745000000C020A501240C5307C081
:10362800C0D401002DE9F0410546DF480C46DF4FC4
:103638002DED048BF0EE408AFDF794FEDC4BB7EEDF
:10364800006ADFEDDC6A0646D3ED007A7B69C6FEC8
:10365800A76AC6FE666A36EE666AD74A002BC7EDC9
:10366800026AC2ED026A87ED036A82ED036A90ED91
:10367800007A40F3B181B969C3F58053C1F580512F
:10368800D7F820C0F0EE475AF8696144D7ED017ABF
:103698000344D1F1000EC1F30B01CEF30B0E58BF5A
:1036A800CEF10001D3F1000EC3F30B03CEF30B0EE2
:1036B80058BFCEF1000307EB830393ED095A41F29B
:1036C80008031944E5EE275AB0EE475A0CEB030EEF
:1036D80007EB81010CF10103D1ED014A07EB8E01E3
:1036E800A4EEA75A81ED015A411C07EB8000C0EDFA
:1036F800095A4842C1F30B01C0F30B0058BF4142BD
:10370800F9615942C3F30B03C1F30B0158BF4B4294
:103718003B625369002B40F326819169C3F58053BE
:10372800C1F58051D069F0EE683A176AB0EE684A80
:10373800034492ED015A39449FEDA08AD3F1000C5D
:10374800C3F30B03DFED9E7AB3EE080ACCF30B0C40
:10375800DFF8788258BFCCF10003D1F1000C02EBFE
:103768008303D3ED095AC1F30B03CCF30B01A5EE88
:10377800854A58BF4B4241F208010B44394401378E
:1037880002EB830302EB8101D3ED014AE4EE853AB3
:1037980024EE888AA5EEA78AD8ED005AC1ED013A31
:1037A800411C65EE877A02EB80004B42C1F30B01A6
:1037B80080ED094AC3F30B0367EE807A28EE268A68
:1037C80058BF59427F4BB0EEE77AD3ED036AA8EEB3
:1037D800868AD1617942B4EEE67AC7F30B07C1F362
:1037E8000B0137EE667A58BF4F42F1EE10FA1762B6
:1037F800CCBF93ED016A93ED026AE6EE076A93ED9A
:10380800007AB4EEE67AC3ED036AF1EE10FA40F1FD
:10381800958087EE266AB5EEC06AF1EE10FA01D5FA
:103828009FED646A93ED047AB7EE009AB4EEC67A17
:1038380036EE476AF1EE10FA4CBFD3ED016AD3EDCC
:10384800026AA6EE867A27EE870A83ED047AB4EE3A
:10385800C90AF1EE10FA74DCBFEE007AB4EEC70ABA
:10386800F1EE10FA00F1E080F7EE006A564BB3EE85
:10387800085A76EEE56A26EEA87AA0EE257A85ED56
:10388800007A96ED010A98ED006AD3ED037A26EEE8
:10389800000A20EE050AB0EEC07AB4EEE77A37EEF9
:1038A800677AF1EE10FACCBFD3ED016AD3ED026A64
:1038B800E6EE877AD3ED006AF4EEE76AC3ED037AA1
:1038C800F1EE10FA37D586EEA77AB5EEC07AF1EEAA
:1038D80010FA01D59FED377AD3ED047AF7EE008A16
:1038E800F4EEC77A37EE677AF1EE10FA4CBFD3EDF3
:1038F800016AD3ED026AE6EE877A20EE270AC3ED65
:10390800047AB4EEE80AF1EE10FA23DCFFEE007A4E
:10391800B4EEE70AF1EE10FA7FD4F7EE006A76EE1D
:10392800C66A26EE888AA0EE068A84ED008ABDEC77
:10393800048BBDE8F081B7EE007ACDE7B7EE006AF8
:1039480070E7B1EE400A10F097FFD8ED005A39EE53
:10395800400A89E7B1EE400A10F08EFF98ED006A40
:1039680038EEC00AD9E7D2ED045AF5EEC05AF1EEA6
:1039780010FA79D9D2ED007A9FED155A67EE857A5B
:1039880067EEA57AFDEEE77A17EE903A002B62DD36
:10399800B3F5805F79DB40F6FF735361012340F68E
:1039A800FF7191610121BDE620180124EC24012456
:1039B8001CA5012400000000A40400246666E63E5D
:1039C800CDCC0C3FBC240124D424012428A50124F7
:1039D8006F12833A00803B47D7ED045AF5EEC05A80
:1039E800F1EE10FA30D9D7ED007A1FED075A67EEDD
:1039F800857A67EEA57AFDEEE77A17EE903A002B06
:103A080019DDB3F5805F36DB40F6FF737B61012378
:103A180040F6FF71B961012132E610F02DFF98EDF3
:103A2800006A30EE680A78E710F026FFD8ED005AF1
:103A380030EE490A18E701230221C7E9053140F6AB
:103A4800FF73C1F580511BE65FED1E7AF0EE675AF1
:103A5800C7ED047AC7E701230221C2E9053140F620
:103A6800FF73C1F580515DE65FED267AF0EE675A87
:103A7800C2ED047A7EE7591CC7ED057AC3F5805379
:103A8800B1F5805FB961DCD1C2E7591CC2ED057A96
:103A9800C3F58053B1F5805F9161E2D17FE700BF44
:103AA8002DE9F041174682B005460C46FFF7CCFCDD
:103AB80067B3013F0026DFF85C807F080EE0FFF760
:103AC800B1FD0099019B6360BE4206F101032160CC
:103AD80005F1080504F108041E4617D0D8F800308F
:103AE80095ED000AD5ED010A4BB10022012B01A981
:103AF80068461346E3D0114601920092E3E701A914
:103B08006846FFF7D5FC0099019BDCE702B0BDE8E9
:103B1800F08100BF24A501242DE9F0474F4D002670
:103B28004F4C2E6005F5C0706E612E62EE6301F099
:103B380065FD40F20F7305F514714A4AA5F83C3249
:103B480040F20113C5F890612846C5F84862C5F8E7
:103B580038222246C5F84C62434F444EDFF860A134
:103B6800DFF86091DFF86081C5E99013404910F0F3
:103B78007DFE404D22464049404810F077FE2246DF
:103B88003D493F4810F072FE2846FCF755FD224695
:103B98003C49284610F06AFE00253B4822463B492E
:103BA8004560C5600760056145618561C6618560DE
:103BB80010F05CFE36482246344907604FF07E57C5
:103BC8004560C560056145618561C661856010F025
:103BD8004DFE304822463049C5604661C0F800A015
:103BE8000761C0F80490C0F8088010F03FFE2B4829
:103BF80022462949C5602A4DC0F800A0C0F80490A3
:103C0800C0F808800761466110F030FE2846FFF7CB
:103C180027F82846234D2246234910F027FE284638
:103C2800FFF71EF822462049284610F01FFE2246BC
:103C38001E491F4810F01AFE22461C491D4810F064
:103C480015FE224619491C4810F010FE2246174955
:103C58001A48BDE8F04710F009BE00BFC884002428
:103C6800000000240080707FCDCCCC3D00803B4715
:103C780029060008201801243D0600080C5307C037
:103C8800000000C02D060008A8170124310600080E
:103C9800C8170124BC24012435060008D4240124B3
:103CA800EC240124A4040024390600082506000891
:103CB800E81701246C04002434040024FC030024C5
:103CC8003333733F6F12033B0AD7A33D00F06EB93D
:103CD80038B5044600F072F9D4F8A850204600F030
:103CE80089F9284601F0F0FBD4F8AC50204600F0E2
:103CF80081F92846BDE8384001F0E6BB00F05AB922
:103D0800183001F0EBBF00BF10B50446683001F071
:103D1800B7FB04F18800BDE8104001F0B1BB00BF5B
:103D280010B50446403001F02BFC04F1B00001F05E
:103D380085FD04F1C000BDE8104001F07FBD00BF63
:103D480010B50446D83001F051FD04F59670BDE871
:103D5800104001F04BBD00BFF0B54FF481718FB03A
:103D680000F1D80701254FF4C0624FF4E063ADF8C5
:103D7800081000F5967402993846ADF80C2008AE84
:103D8800ADF810300095DDE9032301F0D7FC40F2CF
:103D980001134FF480722046ADF814304FF480635D
:103DA800059900950BADADF81820ADF81C30DDE98C
:103DB800062301F0C3FC3046072104F0EBFE96E829
:103DC800070085E807002946384601F0F9FC96E81F
:103DD800070085E807002946204601F0F1FC38462F
:103DE80001F004FD20460FB0BDE8F04001F0FEBC34
:103DF8002DE9F04140F2024304460222002504F175
:103E0800180704F1A8062DED028B8EB09FED1B8AD2
:103E1800ADF80C3005A8039901F03EFD02220DF122
:103E28002600ADF81020049901F036FD0423022283
:103E380005A9384601F044FD04F1680204F188033D
:103E4800C4E92A232946384656F8048B01F05CFF5A
:103E580001462046019100F0CDF80023F0EE480A13
:103E6800019940461A4601F0D9FA25B10EB0BDECC9
:103E7800028BBDE8F0810125E4E700BF6F12033B28
:103E88002DE9F04104469AB00027019100F08CF822
:103E98000199204600F06EF940F6061304F1B006C9
:103EA8009FED400AADF8143004F1C005304605997D
:103EB80001F0AAFC4FF4007328469FED3A0AADF8CA
:103EC800183004F5C878069901F09EFC40F60332D4
:103ED80040F201639FED330AADF8082004F1400079
:103EE8000299ADF80C70C4F8D0600FAEC4F8D45085
:103EF80007ADADF81030DDE9032301F011FB2046D2
:103F0800FFF72AFF2046FFF773FF284601F076FBEC
:103F180001230DF12C0E04F5C07C1593189347F678
:103F28001223169719930223179395E80F008CE82C
:103F38000F008EE80F0086E80F00BDF8403014909F
:103F4800ADF84E30BDF84230D4E9625EADF84C3081
:103F5800C4E9655EBEF1000F04D0724639462846B2
:103F680010F0F6FD13A9404604F078F804F5D27075
:103F780001F058FB3021204600F020F8D4F8A85072
:103F8800204600F037F8284601F09EFAD4F8AC50E5
:103F9800204600F02FF828461AB0BDE8F04101F09D
:103FA80093BA00BF00000000704700BF143001F052
:103FB8000DBA00BF143001F005BA00BF38B500F1E2
:103FC800140504462DED028B284601F0EDF928462C
:103FD80001F0F8F92846B0EE408A01F0E1F9D0ED99
:103FE800007AF8EE677A88EE277ABDEC028B84EDCA
:103FF8000E7A38BD90ED0E0A704700BF10B540F23A
:1040080003338EB000244FF60B7240F20341ADF833
:10401800083009A80123ADF81020ADF82420224665
:10402800ADF80C100094029907940C94CDE905445E
:10403800CDE90A4401F06AFF04A801232246039946
:10404800009401F063FF09A802F046F810B90120B6
:104058000EB010BD04A802F03FF8A0420CBF022029
:1040680020460EB010BD00BF2DE9F04103239AB0E1
:10407800012700240646CDE914373B4BCDE9104310
:1040880040F20453CDE91647ADF84830FFF7B6FFC4
:10409800B842054625D0022845D040F60132334BB8
:1040A8000DF12C081894ADF82C200B981997CDF821
:1040B8004A3000F0E3F810A906F13C0003F054F888
:1040C800302003224FF07E5341460D930E93CDE9E5
:1040D8000B02F26B06F1140001F02AF91AB0BDE8E0
:1040E800F0811023214A06A906908DF828300DF199
:1040F8002C081F4BCDF84A2007930294CDE91804E9
:10410800CDE9080402A802F067FA0823029A03A975
:104118004046ADF80C508DF80E40049505930B946D
:1041280000F0ECF8C7E700200121104B0DF12C0836
:104138003A460094CDF84A304FF60B730C94ADF81C
:104148002C302346CDE9180140F601314046ADF840
:1041580018100699CDE90D4401F0D8FE21464046D5
:1041680001F0C6FFA7E700BF040204040406040325
:104178000704010B2DE9F04704462DED028B82B0B0
:1041880000294DD0012140F2011200230091ADF821
:1041980004208DF80630364A0127364B04F104090D
:1041A800354904F12908626040F20272A36040F6C2
:1041B8000663E16004F1250AA4F82520A4F8293053
:1041C800278284F8277084F82B7004F05FFB05467B
:1041D80004F0C2F96946064650BB4DB304F13000FD
:1041E8008DF8067004F0DAFA072D3CD104F11405B5
:1041F8002046FFF739FF284601F0E4F82846B0EEDC
:10420800408A01F0CDF8D0ED007AF8EE677A88EEB2
:10421800277A84ED0E7A02B0BDEC028BBDE8F087F8
:1042280040F2011300918DF80610ADF80430B2E7A2
:1042380004F1300004F0B2FA072D11D049462046A7
:1042480002F012FC0EB9002DD0D1504601F05AFFF1
:10425800404601F057FF04F1120000F079F9C5E774
:10426800002EF2D1C2E74946204602F0FDFBBDE729
:104278000508050905070506050A060610B584B0F0
:1042880003460124ADF8040003A8ADF80C30ADF8DE
:104298000E4001F037FF214603A802F01DF8204622
:1042A80004F058F9002103A802F016F8204604F09B
:1042B80051F9214603A802F00FF804B010BD00BF61
:1042C80010B5C2F3002384B00C46017C8DF80D2094
:1042D80043EA4402FA2402238DF80C2003AA00942E
:1042E80002F010FA18B10124204604B010BD0446AB
:1042F8000A2004F02FF9204604B010BD034670B51B
:1043080043F8042B044684B007C983E80700A3795F
:1043180083B91A210B461E22FA2523742046ADF8CC
:104328000C20022303AA009502F0ECF928B1012021
:1043380004B070BD1B210B46EDE70A2004F00AF912
:104348004FF4B85200950223ADF80C20204603AA7A
:10435800217C02F0D7F90028E9D10A2004F0FAF804
:1043680041F2027200950223ADF80C20204603AA00
:10437800217C02F0C7F90028D9D10A2004F0EAF814
:10438800042200950223ADF80C20204603AA217CC4
:1043980002F0B8F90028CAD10A2004F0DBF8062296
:1043A80000950223ADF80C20204603AA217C02F0D8
:1043B800A9F90028BBD10A2004F0CCF841F2082260
:1043C80000950223ADF80C20204603AA217C02F0B8
:1043D80099F90028ABD10A20064604F0BBF80095ED
:1043E800022303AA217C2046ADF80C6002F08AF96A
:1043F80000289CD1304604F0ADF8009522790C23B2
:104408002046002A8DF80C3003AA4FF0020314BF8F
:10441800622142218DF80D10217C02F073F90028E9
:1044280085D1304604F096F82279D4E902310B435D
:10443800DBB20AB943F0400362790AB143F02003C2
:104448000E22FA258DF80D302046009502238DF8AE
:104458000C2003AA217C02F055F900287FF467AFED
:104468000A2004F077F8102200950223ADF80C20FA
:10447800204603AA217C02F045F900287FF457AFB3
:104488000A2004F067F8122100950223ADF80C10F9
:1044980003AA217C204602F035F900287FF447AFB3
:1044A8000A2004F057F8012209212046FFF708FFE7
:1044B800003818BF01203BE7F0B5102387B0234C24
:1044C800012200250126002702A920460195CDE9F1
:1044D80002234FF48052CDE904670AF09FFF64205D
:1044E80004F08AFC02A94FF480522046CDE9046703
:1044F80002261027CDE902670AF090FF0322102355
:1045080002A92046CDE9022300230422CDE9042391
:104518004FF480520AF082FF40F23223042202A9AB
:10452800019310232046CDE90223019A0123059225
:104538004FF4805204930AF071FF40F606012046BA
:104548000AF08CFF284607B0F0BD00BF34A501244F
:104558001C4B00221C494FF0400C30B5054689B071
:104568000220596007219A601A620124DA620A223D
:104578004FF4006EDC6006922022CDE90001042091
:104588000821CDE9020103201021CDE9040108200A
:104598006946C3E904024FF4C072181DC3E906C294
:1045A8004FF48052C3E909E20AF00EFF38B92846F1
:1045B800FFF782FF003818BF012009B030BD204640
:1045C80009B030BD30A5012440410052614A0021A4
:1045D800D0B513688EB00A91002B40F0B9805E4BBD
:1045E80001214FF683700C2411600221D3F8D420E6
:1045F8000026032742F48052C3F8D420D3F8D420ED
:1046080002F480520092009AD3F8E02042F010029F
:10461800C3F8E020D3F8E02002F010020192019ADA
:10462800D3F8E02042F04002C3F8E020D3F8E020BD
:1046380002F040020292029AD3F8E02042F0080207
:10464800C3F8E020D3F8E02002F008020392039AAE
:10465800D3F8E02042F48072C3F8E020D3F8E020D9
:1046680002F480720492049AD3F8E02042F08002A7
:10467800C3F8E020D3F8E02002F080020592059A02
:10468800D3F8E02042F02002C3F8E020D3F8E0207D
:1046980002F020020692069AD3F8E02042F00402C3
:1046A800C3F8E020D3F8E0300C9403F00403079338
:1046B8000323079A0B93CDE9080108A9274806F0B8
:1046C80021FA48F23712022308A925480C94CDE9AB
:1046D8000823CDE90A6706F015FA4CF203720223A3
:1046E80008A920480C94CDE90823CDE90A6706F00B
:1046F80009FA40F2FF62022308A91B480C94CDE98D
:104708000823CDE90A6706F0FDF94FF60C7202237B
:1047180008A916480C94CDE90823CDE90A6706F0E4
:10472800F1F94FF63F02022308A911480C94CDE98C
:104738000823CDE90A6706F0E5F92022022308A933
:104748000A480C94CDE90A67CDE9082306F0DAF99E
:104758000EB0D0BD2CA50124004402580010025808
:1047680000180258000C025800200258001C025879
:10477800001402582DE9F04FDFF8108406460D4664
:10478800144608F118002DED028B89B000AF02F035
:10479800E3FDD8F8183073B3D8F81C30D8F8049073
:1047A800002B43690BBF4FF0080A4FF0100A4FF077
:1047B800020B4FF0040BB9F1000F2AD0A200EA4611
:1047C800012B02F1070222F00702ADEB020D684649
:1047D800ADEB020D694600F03F81022B00F0D68058
:1047E800002B6FD02246C847D5462437BD46BDECBE
:1047F800028BBDE8F08FD8F81C30002BF5D0D8F824
:1048080004904FF0080A4FF0020B4369B9F1000F0A
:10481800D4D1FB61D8F80030BB61002BE5D0D54876
:1048280002F00CFE6B46BBF1020F786108EE103AFD
:10483800FB6900F083816A465146A2EBC4029546A3
:104848006200EA46B2FBFBF2AAEBC40085460AEB1B
:104858008200EE46F861ADEB010DF8690EEB820CB3
:10486800C7F810C0EC46ADEB010D00EB8201CCF8A7
:104878000400CCF8081001EB82013869E946CCF84D
:104888000C1000EB8201CCF800A001EB8202C9E910
:1048980000E0C9E90212012B00F06483022B00F04A
:1048A8006C82002B00F08081620849466046BB6933
:1048B800984718EE103A24379D46BD46BDEC028B4A
:1048C800BDE8F08F002C8DD01A46D8ED0C6A9FED0C
:1048D800B27A8446331D36F922E00CF1080C07EE53
:1048E80090EA33F922E00232F8EEE77A944267EE72
:1048F800877A67EEA67A4CED027A07EE90EAF8EE30
:10490800E77A67EE877A67EEA67A4CED017AE2D805
:10491800F9612246C847984ED8ED0D6A0020F9691A
:104928002B1D9FED9E7A9FED9E6ADFED9E5A22E039
:10493800F4EEC67AF1EE10FAC0F2C88447F6FE72B9
:10494800D1ED017A45F8202066EEA77AF4EEC77A11
:10495800F1EE10FA40F2F080F4EEC67AF1EE10FAB9
:10496800C0F2D58447F6FE7243F8202002300831A1
:1049780084427FF639AFD1ED007A66EEA77AF4EE7D
:10498800C77AF1EE10FAD3D83246D9E7002C3FF4B3
:1049980029AFD8ED0C6A84469FED787A0022331D42
:1049A8008E4656F822100CF1080C07EE901A53F8B0
:1049B80022100232F8EEE77A944267EE877A67EEC1
:1049C800A67A4CED027A07EE901AF8EEE77A67EECF
:1049D800877A67EEA67A4CED017AE2D871462246CC
:1049E800C7F81CE0C847664ED8ED0D6A0020F96983
:1049F8002B1D9FED6A7A9FED6A6ADFF894C120E06B
:104A0800F4EEC67AF1EE10FAC0F279843246D1EDAE
:104A1800017A45F8202066EEA77AF4EEC77AF1EE1F
:104A280010FA40F28780F4EEC67AF1EE10FAC0F27E
:104A38005E84324643F820200230083184427FF6F3
:104A4800D3AED1ED007A66EEA77AF4EEC77AF1EE2E
:104A580010FAD5D86246DAE7002C3FF4C3AED8ED99
:104A68000C6A86469FED477A4FF0000C331D56F8C6
:104A78002C200EF1080E82F40002A2F5000207EEC7
:104A8800902A53F82C200CF1020CF8EEE77A82F405
:104A980000026445A2F5000267EE877A67EEA67AFF
:104AA8004EED027A07EE902AF8EEE77A67EE877AFB
:104AB80067EEA67A4EED017AD9D8F9612246C84741
:104AC800314ED8ED0D6A0020F9692B1D9FED337A20
:104AD8009FED336ADFF8BCC01FE0F4EEC67AF1EE52
:104AE80010FAC0F2FC833246D1ED017A45F8202055
:104AF80066EEA77AF4EEC77AF1EE10FA18D9F4EE5A
:104B0800C67AF1EE10FAC0F2DA83324643F8202072
:104B18000230083184427FF667AED1ED007A66EE46
:104B2800A77AF4EEC77AF1EE10FAD6D86246DBE738
:104B38006246EBE762467DE7324615E7A100D646B6
:104B48006208073121F00701ADEB010DEA46ADEB34
:104B5800010D6946ADEB0E0D0AEB8200EC46ADEB9C
:104B68000E0D01EB8202F861E946CCE900A0C9E923
:104B7800001290E684A501240280FFFF00000030A7
:104B88000082FF7F0000003482FF7F0068A50124B7
:104B9800007E00807E0080FF0000003804FF7FBF99
:104BA80004FF7F3F00FEFF46002C00F0C982BBF1E6
:104BB800020FD8F8242000F0FA827969C7F8049027
:104BC80002EB810E5FED0C5A8A00DCF808100EF13A
:104BD80004007A611A46DCF80C303B61331DD7F8C3
:104BE80010903D61FD69C7E902CB8C46834636F9D2
:104BF8002210D8ED0C7A06EE101A33F9221006EEC0
:104C0800901A3EF92210B8EEC66A07EE101AF8EEAE
:104C1800E66A3BF92210B8EEC77A26EE256A66EEF8
:104C2800A56A27EE257A26EE276A66EEA76A27EE9A
:104C3800277A07EE901A51080232F8EEE77A0AEB63
:104C48008100944280ED006A05EB810067EEA57A49
:104C5800C0ED006A0CEB810009EB810180ED007A60
:104C680098ED0C7A67EE877AC1ED007ABFD8D7F84D
:104C780004903D69D7E902CB60466208BB694946A2
:104C88009847D8F82C307A69D8ED0D6A1A441FED88
:104C98003D7A1FED3D6A2B1D904602F1040A5FED37
:104CA8003F5A0022A84ED9E900EC51E0F4EEC67A4A
:104CB800F1EE10FAC0F2C78247F6FE7045F82200FE
:104CC8000CEB0100D0ED007A66EEA77AF4EEC77A15
:104CD800F1EE10FA4BD9F4EEC67AF1EE10FAC0F202
:104CE800BA8247F6FE70BBF1020F43F822002BD0C0
:104CF800D9F808000844D0ED007A66EEA77AF4EEF9
:104D0800C77AF1EE10FA36D9F4EEC67AF1EE10FA57
:104D1800C0F2CD8247F6FE7048F82200D9F80C00A0
:104D28000144D1ED007A66EEA77AF4EEC77AF1EE87
:104D380010FA1ED9F4EEC67AF1EE10FAC0F2AF827C
:104D480047F6FE714AF82210023294427FF6B1AD5E
:104D580051080EEB81008900D0ED007A66EEA77A43
:104D6800F4EEC77AF1EE10FAA0D83046A6E730463E
:104D7800B9E73146E6E73046CEE7002C00F0E0819F
:104D8800BBF1020FD8F8243000F0E1817A69DCF831
:104D9800081003EB820EC7F804909300DFED6B5AFE
:104DA8000EF1040000227B61DCF80C303B61331DFE
:104DB800D7F810903D61FD69C7E902CB8C46834660
:104DC80056F82210D8ED0C7A07EE101A53F8221074
:104DD800B8EEC76A07EE101A5EF82210F8EEC76A36
:104DE80007EE101A26EE256A5BF82210B8EEC77A8D
:104DF80066EEA56A26EE276A27EE257A66EEA76A8A
:104E080027EE277A07EE901A51080232F8EEE77A71
:104E18000AEB8100944280ED006A05EB810067EEA1
:104E2800A57AC0ED006A0CEB810009EB810180EDE9
:104E3800007A98ED0C7A67EE877AC1ED007ABFD8D0
:104E4800D7F804903D69D7E902CB60466208BB6990
:104E580049469847D8F82C307A69D8ED0D6A1A4433
:104E68009FED3E7A9FED3E6A131D9246DFF8E4C03F
:104E78000022FB612B1D364ED9E9008E4EE0F4EE80
:104E8800C67AF1EE10FAC0F2FC81304645F82200ED
:104E98000EEB0100D0ED007A66EEA77AF4EEC77A41
:104EA800F1EE10FA49D9F4EEC67AF1EE10FAC0F232
:104EB800EF813046BBF1020F43F822002AD0D9F81F
:104EC80008000844D0ED007A66EEA77AF4EEC77AB7
:104ED800F1EE10FA35D9F4EEC67AF1EE10FAC0F216
:104EE800C98130464AF82200D9F80C000144D1EDB6
:104EF800007A66EEA77AF4EEC77AF1EE10FA1ED9B8
:104F0800F4EEC67AF1EE10FAC0F2AD813146F869D6
:104F180040F82210023294427FF6CBAC510808EBDD
:104F280081008900D0ED007A66EEA77AF4EEC77AA0
:104F3800F1EE10FAA3D86046A8E76046BAE76146E2
:104F4800E5E76046CEE700BF0280FFFF00000030C3
:104F58000082FF7F007E00800000003404FF7FBFD6
:104F680004FF7F3F002C00F0EB807A690021D8F81D
:104F78002430C7F8109003EB820ED7F81C909300EA
:104F8800FD610EF104021FED0C6A7B61331D1546AD
:104F980056F821204808D8ED0C6ABBF1020F82F4BC
:104FA8000002A2F5000207EE902A53F8212082F4AD
:104FB8000002B8EEE77AA2F5000227EE067A07EEBD
:104FC800902A0AEB8002F8EEE77A27EE267A67EE57
:104FD800867A82ED007A09EB80024FEA800067EE5C
:104FE800A67AC2ED007A27D05EF8212082F400026A
:104FF800A2F5000207EE902A55F8212082F400025B
:10500800B8EEE77AA2F5000227EE067A07EE902AB4
:10501800DCF80820F8EEE77A024427EE267A67EEF5
:10502800867A82ED007A98ED0C7ADCF80C2067EE2F
:10503800877A0244C2ED007A02318C42A8D8D7F8A8
:10504800109060466208BB694946FD699847D8F8E0
:105058002C307A69D8ED0D6A1A441FED407A1FED9D
:10506800406A131D9246DFF8C4C20022FB612B1D63
:10507800AB4ED9E9008E4EE0F4EEC67AF1EE10FAA6
:10508800C0F2C580304645F822000EEB0100D0ED95
:10509800007A66EEA77AF4EEC77AF1EE10FA49D9EB
:1050A800F4EEC67AF1EE10FAC0F2BF803046BBF1DA
:1050B800020F43F822002AD0D9F808000844D0ED9E
:1050C800007A66EEA77AF4EEC77AF1EE10FA35D9CF
:1050D800F4EEC67AF1EE10FAC0F2AE8030464AF825
:1050E8002200D9F80C000144D1ED007A66EEA77AC7
:1050F800F4EEC77AF1EE10FA1ED9F4EEC67AF1EEA4
:1051080010FAC0F28B803146F86940F8221002325A
:1051180094427FF6CEAB510808EB81008900D0EDB0
:10512800007A66EEA77AF4EEC77AF1EE10FAA3D801
:105138006046A8E76046BAE76146E5E76046CEE71D
:10514800224649466046BB699847FFF7B2BBC7F895
:1051580010B0002298ED0C6A331DDFED726AD7F8A3
:105168001CB0786956F8221007EE901A53F82210EE
:10517800B8EEE77A07EE901A51080232F8EEE77AAD
:1051880027EE267A0AEB810E94420BEB810167EE3B
:10519800A67A27EE067A67EE867A8EED007AC1ED5A
:1051A800007ADFD88300D7F810B07B614DE61A4645
:1051B800C7F810B098ED0C6A331DDFED5B6AD7F8BD
:1051C8001CB0786936F9221007EE101A33F922104C
:1051D80007EE901AB8EEC77A51080232F8EEE77A6D
:1051E80027EE267A0AEB810E94420BEB810167EEDB
:1051F800A67A27EE067A67EE867A8EED007AC1EDFA
:10520800007ADFD88300D7F810B07B6134E5F0EE80
:10521800675AFEEEE45A15EE900A34E7F0EE675A44
:10522800FEEEE45A15EE901A6EE7F0EE675AFEEEBF
:10523800E45A15EE900A3AE7F0EE675AFEEEE45AA1
:1052480015EE900A4BE767EEA57AFDEEE77A17EEC2
:10525800900A00B232E567EEA57AFDEEE77A17EE1E
:10526800900A00B23FE5F0EE675AFEEEE05A15EEFE
:10527800901A4CE6F0EE675AFEEEE05A15EE900AE8
:1052880030E6F0EE675AFEEEE05A15EE900AFDE5BC
:10529800F0EE675AFEEEE05A15EE900A0AE667EE5F
:1052A800A57AFDEEE77A17EE901A09B24AE567EE9D
:1052B800A57AFDEEE77A17EE900A00B22CE5F0EE3B
:1052C800675AFEEEE45A15EE902A1FE467EEA57AB7
:1052D800FDEEE77A17EE902A12B2FFF731BBF0EE37
:1052E800675AFEEEE45A15EE902AFFF7FDBBF0EE82
:1052F800675AFEEEE05A15EE902AFFF79BBBF0EED8
:10530800675AFEEEE05A15EE902AFFF780BB67EE6B
:10531800A57AFDEEE77A17EE902A12B2FFF724BBC2
:1053280082FF7F0000000030000000387E0080FF10
:1053380030B5184C154685B0046004F1080EEC46EB
:105348000FC98EE80F00D4ED047AF5EEC07A8CE828
:105358000F00F1EE10FA1ADDB7EE006A94ED057A47
:1053680027EE277AC6EE276A84ED0D7AC4ED0C6A1B
:105378006DB1204640F8185F01F0EEFF0649036959
:105388000020064A2162A262E36005B030BD012018
:1053980005B030BD68A501240020003000000030B1
:1053A80000680830704700BFB1F5807F03680A467F
:1053B80028BF4FF48072B1F5807F9A6094BF0020B7
:1053C800012070470068183002F026B830B504682C
:1053D80083B008480D46A368A26A216A9B00009022
:1053E80004F1180001F0BAFF0020C4E9000503B079
:1053F80030BD00BF7D47000810B4074B4FF07E5109
:1054080030240022032019619C60D8605DF8044BA9
:105418005961C3E90622704768A50124F6EE007AAF
:105428009FED166A20EE207A0160F7EE006A80EDA3
:10543800036A80ED020A27EE277AC6EE877AF4EE31
:10544800E67AF1EE10FA11DDF0EE667A4FF07E5151
:105458004FF0000C02760022C0ED017AC0F814C0AB
:10546800016143768276C0ED070A7047F4EEC67A8A
:10547800F1EE10FAEAD5F0EE467AE7E70000000010
:105488000268037E128807EE902AFBEEC87A1BB1E9
:10549800B7EE007A77EE677AD0ED056A90ED047A78
:1054A80077EEE67A437E67EE877A0BB1F1EE677A9C
:1054B80090ED030A90ED017A77EEC07AA7EE270AFD
:1054C80080ED030A704700BF837E80ED020AABB906
:1054D800D0ED077A27EE800AF6EE007AB7EE007A6A
:1054E80020EE270AC7EE007AF4EEC77AF1EE10FA3A
:1054F80007DDF0EE477AC0ED017A7047DFED067AF6
:10550800E8E7F5EEC07AF1EE10FAF4D5DFED037AAC
:10551800C0ED017A704700BF6F12033B0000000026
:1055280030B585B004460025ADF80C10ADF808205C
:10553800ADF8043003F00CF8BDF80C204FF480737C
:10554800206004F118002283BDF808206383E383F8
:10555800A283257100F0D6FD04F11C0000F0D2FDF5
:105568009FED060A019904F1080000F04DF94FF685
:10557800FF736562238405B030BD00BF00000000E2
:10558800F8B5044602F0E4FF00262368267183423A
:1055980005D104F10800BDE8F84000F04FB9012733
:1055A80094F82050206004F11800BD40277100F0E5
:1055B80085FE6DB2284394F82150BD4084F8200040
:1055C80004F11C0000F07AFE94F820306DB2666297
:1055D80003F003032843022BC0B284F8210009D04A
:1055E80000F003000228D4D1002BD2D14FF0FF33B2
:1055F8006362CEE78307CCD16762CAE7074A11889E
:1056080030B481800024064D91884FF48072856003
:105618000460C180C26030BC704700BF684B01089D
:105628000040003000220A2302700371704700BF57
:10563800DFED167A8C46B4EE670A10B50446864646
:10564800F1EE10FA2DED028B80ED080A48BFB0EE9E
:10565800670AC0ED090AB0EE608A80F83420BCE819
:105668000F00AEE80F009CE80F008EE80F000FF067
:1056780075F9F0EE407AB0EE480AC4ED0A7A0FF0F8
:105688006DF984ED0B0ABDEC028B10BD95BFD633C6
:1056980090F8343010B50446032B4BD8DFE803F0FC
:1056A8003B2A1502FFF7ECFE60EE006AD4ED087A9B
:1056B80094ED097A26EE800A37EE677AE0EE077AEB
:1056C800C4ED0C7AB0EE670A10BDFFF7D9FE94ED71
:1056D8000A7AD4ED0B7A77EEC77AA0EE277AB0EE85
:1056E800470A0FF0C9F8F0EE407A84ED0C0AB0EEE4
:1056F800670A10BDFFF7C4FED4ED087A94ED097A65
:1057080020EE000A37EE677AE0EE077AB0EE670A15
:10571800C4ED0C7A10BDFFF7B3FED4ED087A94ED12
:10572800097A37EE677AE0EE077AB0EE670AC4EDD9
:105738000C7A10BDD0ED0C7AC4E700BF30B585B047
:1057480004469FED110A9DF82050ADF80C100399FE
:10575800ADF808202A46ADF804308DED000A0CF0AB
:1057680071FF9DED000A2A46029904F11C000CF015
:1057780069FF9DED000A2A46019904F1380005B039
:10578800BDE830400CF05EBF00007A4410B52DED46
:10579800028BF0EE608A0446B0EE418A0CF076FF88
:1057A80004F11C00B0EE680A0CF070FFB0EE480A75
:1057B80004F13800BDEC028BBDE810400CF066BF68
:1057C80038B50C46054691ED000A0CF05FFF94EDE4
:1057D800010A05F11C000CF059FF94ED020A05F1CD
:1057E8003800BDE838400CF051BF00BF10B5044682
:1057F8000CF05EFF04F11C000CF05AFF04F13800B5
:10580800BDE810400CF054BF70B5044682B0C1F337
:105818000726CDB2ADF8041002F09AFE4FF480725C
:105828004FF001232060A01DA571A280E671A3603E
:1058380002B0BDE8704000F065BC00BF38B5044652
:1058480002F086FE002223682271834210D00122D2
:10585800A57AE37A954020602271A01D6DB243B904
:1058680000F02CFD40B22843C0B27F28A0720AD0B5
:1058780038BD00F023FDB0FA80F040092843C0B2DB
:105888007F28A072F4D102F063FE07EE900AF8EECA
:10589800677AC4ED037A38BD00B583B04FF0000EC7
:1058A8004FF0030C4274ADF80410BDF8043080F8D2
:1058B80010E0A0F802C0038003B05DF804FB00BF4D
:1058C8002DE9F04FDFF81C8300258DB0C04C037024
:1058D80008F140034260074601920E4620222946FD
:1058E8004046C4F86831C4F86481CDE90255CDE971
:1058F8000455CDE90655CDE90855CDE90A550FF00F
:1059080027F92022294604F5A170C4F83151C4F8BA
:105918003551C4F83951C4F83D510FF019F9019BBC
:1059280084F8485284F830317A68002A6AD02B46C5
:1059380004F59871454606F1100A9E46F01856F887
:1059480003B0E2180EF1010ED0F80CC0D0F80490A4
:10595800D0F8088044F803B0C2F80CC04FF0000C2F
:10596800C2F80490C2F80880008A25F802CB108299
:105978001AF8032001F8012F002A70D07A684FF036
:1059880001001233724584F84802D7D84FF48022B8
:1059980090489DF8043008214FF000084FF00009A6
:1059A800C4F884310023C4E95B020122C4F87431CD
:1059B80084F88031C4E95E2194F84812C4E9648906
:1059C800A9B3C4F89821002284F8813184F8883179
:1059D8003B78C4E96722002B38D00122002001213E
:1059E800013B84F8A421C4E96C01082B30D8DFE816
:1059F80013F0BD00C200C700CC00D100D600DB0008
:105A0800E100E8009DF804300121C4F87421C4F8CD
:105A180084314FF4802384F880216E4AC4E95B23E3
:105A280008230022C4E95E130023C4E96423012388
:105A3800002284F88131002384F888310323C4F8D4
:105A480098313B78C4E96722002BC6D184F8A43189
:105A5800614803F009FE034638B1FFBEFEE77A68E5
:105A6800123372453FF66AAF90E702A95A4802938B
:105A780003F058FF8246002876D1042240F2FF71D5
:105A88000A90CDE9081294F83021002A00F0F3803A
:105A98004FF006080AEBCA034FEACA0904EB4303AE
:105AA8005B7C072B07D8DFE803F0595C5653504D51
:105AB8004A04072307930FFA8AF6D14406EBC60671
:105AC80004EB490904EB46077500384600F01AFB59
